:020000040000FA
:060000002BEF11F01200CD
:020006001200E6
:0600080009EF0FF01200E9
:02000E00477237
:070010000059650052650074
:0600180097EF0EF012004C
:02001E000500DB
:10002000FC220000000F000048000000F422000045
:10003000780F000008000000EB2200000A01000019
:10004000090000008A22000080000000610000001A
:0C00500072220000E10000001800000017
:04005C00D9CFE6FF13
:10006000E1CFD9FF040EE126DE6ADD6ADECF10F0B3
:10007000DDCF11F0126A136A11AE02D01268136854
:10008000D950FB0FE96EFF0EDA20EA6EEE50105CDD
:10009000EE501158EE501258EE5013581DE2020E59
:1000A000DB6A030EDB6A020EDBCF10F0030EDBCF40
:1000B00011F0D890115004E6050E105C000E115896
:1000C00006E2020EDB2A030EEEE3DB2AECD7DF2A80
:1000D000010ECCE3DB2ACAD7040EE15C02E2E16A3E
:1000E000E552E16EE552E7CFD9FF1200D9CFE6FF26
:1000F000E1CFD9FF040EE126DE6ADD6ADECF10F023
:10010000DDCF11F0126A136A11AE02D012681368C3
:10011000D950FB0FE96EFF0EDA20EA6EEE50105C4C
:10012000EE501158EE501258EE5013581DE2020EC8
:10013000DB6A030EDB6A020EDBCF10F0030EDBCFAF
:1001400011F0D890115004E6EE0E105C000E11581C
:1001500006E2020EDB2A030EEEE3DB2AECD7DF2AEF
:10016000010ECCE3DB2ACAD7040EE15C02E2E16AAD
:10017000E552E16EE552E7CFD9FF1200D9CFE6FF95
:10018000E1CFD9FF0F0E8116FE0EDB50F00B81126E
:100190008186010EE66EE66AE66AE66AA7DFE55248
:1001A000E552E552E5528196010EE66EE66AE66A90
:1001B000E66A9CDFE552E552E552E5520F0E8116E4
:1001C000FE0EDB38F00B81128186010EE66EE66AC8
:1001D000E66AE66A8BDFE552E552E552E552819622
:1001E000010EE66EE66AE66AE66A80DFE552E552EF
:1001F000E552E552E552E7CFD9FF1200D9CFE6FF2D
:10020000E1CFD9FFE652190EE66EE66AE66AE66AC3
:100210006DDFE552E552E552E5520F0E8116F80EFC
:1002200081160F0E8116300E81128186010EE66E48
:10023000E66AE66AE66A5ADFE552E552E552E552B9
:100240008196010EE66EE66AE66AE66A4FDFE552DF
:10025000E552E552E5520F0E8116300E811281866D
:10026000010EE66EE66AE66AE66A40DFE552E552AE
:10027000E552E5528196010EE66EE66AE66AE66AA6
:1002800035DFE552E552E552E5520F0E8116300E8C
:1002900081128186010EE66EE66AE66AE66A26DF6C
:1002A000E552E552E552E5528196010EE66EE66AA8
:1002B000E66AE66A1BDFE552E552E552E5520F0EAB
:1002C0008116818A8186010EE66EE66AE66AE66A32
:1002D0000DDFE552E552E552E5528196010EE66EDC
:1002E000E66AE66AE66A02DFE552E552E552E55261
:1002F000280EE66E43DFE5520C0EE66E3FDFE55258
:10030000E552E552E7CFD9FF1200D9CFE6FFE1CFA2
:10031000D9FF020EE126DF6A010EDB6A81940F0E1F
:10032000E66EE66AE66AE66A99DEE552E552E5526D
:10033000E5520F0E81128186E66EE66AE66AE66A8B
:100340008DDEE552E552E552E5520F0E8114E76E5F
:10035000010EE7CFDBFF81960F0EE66EE66AE66AD6
:10036000E66A7CDEE552E552E552E5520F0E811257
:100370008186E66EE66AE66AE66A70DEE552E55276
:10038000E552E5520F0E8114DF6E010EDB50DF12D5
:100390008196010EE66EE66AE66AE66A5FDEE5527F
:1003A000E552E552E552DF50106E020EE15C02E2CA
:1003B000E16AE552E16E1050E552E7CFD9FF120035
:1003C000D9CFE6FFE1CFD9FFE652DF6A9EDFDF6ECD
:1003D000DFBEFCD7DF50E552E552E7CFD9FF120070
:1003E000D9CFE6FFE1CFD9FF0F0E8116FE0EDB500D
:1003F00081128186050EE66EE66AE66AE66A2EDE00
:10040000E552E552E552E5528196050EE66EE66A42
:10041000E66AE66A23DEE552E552E552E552E55228
:10042000E7CFD9FF1200D9CFE6FFE1CFD9FF819402
:10043000050EE66EE66AE66AE66A10DEE552E55209
:10044000E552E552FE0EDBCFE6FFCADFE552FE0EB7
:10045000DB38F00BE66EC4DFE552E552E7CFD9FF9B
:100460001200D9CFE6FFE1CFD9FF8184050EE66EF9
:10047000E66AE66AE66AF2DDE552E552E552E552E1
:10048000FE0EDBCFE6FFACDFE552FE0EDB38F00BF5
:10049000E66EA6DFE5528194E552E7CFD9FF120060
:1004A000D9CFE6FFE1CFD9FFFE0EDBCFE6FFD9DFE4
:1004B000E552E552E7CFD9FF1200D9CFE6FFE1CFF1
:1004C000D9FFFE0EDBCFE6FFCCDFE552E552E7CFEA
:1004D000D9FF1200D9CFE6FFE1CFD9FFFD0EDBCF68
:1004E000F6FFFE0EDBCFF7FF0800F5500FE0FD0E24
:1004F000DBCFF6FFDB2AFE0EDBCFF7FF01E3DB2AC3
:100500000800F550E66ED9DFE552E8D7E552E7CFAF
:10051000D9FF1200D9CFE6FFE1CFD9FFE652FD0E99
:10052000DB500F0B106EFE0EDB50010B400DF35035
:100530001024DF6E7F0EDF14800FDF6EDFCFE6FF4B
:1005400072DFE552E552E552E7CFD9FF1200010E06
:10055000E66E69DFE552E66AE66ADCDFE552E552FF
:100560001200D9CFE6FFE1CFD9FF050EE126010E3B
:10057000F36EDB6E020EDB6A030EDB6A040EDB6ACF
:10058000DF6ADFCF10F0116A10BE1168FB0EDBCFFF
:1005900012F0FC0EDBCF13F011501318E8AE02D0AE
:1005A000133404D01250105C135011582DE2FD0E7C
:1005B000DBCF10F0FE0EDBCF11F0126A136A11AE22
:1005C00002D012681368D950010FE96EDACFEAFF42
:1005D00010C00BF011C00CF012C00DF013C00EF0E3
:1005E000EECF06F0EECF07F0EECF08F0EFCF09F038
:1005F0008CEC10F005C0EDFF04C0EDFF03C0EDFF73
:1006000002C0EFFFDF2ABDD7010EDBCF10F0020ED4
:10061000DBCF11F0030EDBCF12F0040EDBCF13F0B3
:1006200010C006F011C007F012C008F013C009F0A6
:10063000050EE15C02E2E16AE552E16EE552E7CFC8
:10064000D9FF1200D9CFE6FFE1CFD9FF020EE12694
:10065000DF6AFB0EDBCF10F0FC0EDBCF11F0FD0EDE
:10066000DBCF12F0FE0EDBCF13F010501110121082
:10067000131005E1300EE66E20DFE552F4D0D950BC
:10068000FB0FE96EFF0EDA20EA6ED890030EEB50F6
:10069000000A08E6000EEE5C000EEE58000EEE5862
:1006A000000EEE5815E22D0EE66E07DFE552D9502A
:1006B000FB0FE96EFF0EDA20EA6E000EEE6CEF1E05
:1006C000EE22EF1EEE22EF1EEF22ED52ED52ED5222
:1006D000DE52070EDD6E010EDBCF10F0000EE76E6E
:1006E0001018E8AE02D0103403D0E750D880105470
:1006F00001E3B9D0010EDB04146E156A14BE15684F
:1007000014C0E6FF15C0E6FF0A0EE66EE66A29DFB2
:10071000E552E552E552E55206C010F007C011F06F
:1007200008C012F009C013F006C00BF007C00CF0AF
:1007300008C00DF009C00EF0FB0EDBCF06F0FC0E7A
:10074000DBCF07F0FD0EDBCF08F0FE0EDBCF09F0AC
:10075000C4EC10F0065007100810091041E0010E1B
:10076000DF6EDB04186E196A18BE196818C0E6FF40
:1007700019C0E6FF0A0EE66EE66AF3DEE552E552C0
:10078000E552E55206C014F007C015F008C016F097
:1007900009C017F006C00BF007C00CF008C00DF040
:1007A00009C00EF0FB0EDBCF06F0FC0EDBCF07F02E
:1007B000FD0EDBCF08F0FE0EDBCF09F0C4EC10F02D
:1007C00006C010F007C011F008C012F009C013F005
:1007D000300E1026000E112212221322105003D0C8
:1007E000DF5004E0300EE66E68DEE552010EDB04F9
:1007F000146E156A14BE156814C0E6FF15C0E6FF36
:100800000A0EE66EE66AADDEE552E552E552E552C5
:1008100006C010F007C011F008C012F009C013F0B4
:10082000D950FB0FE96EFF0EDA20EA6E06C00BF01E
:1008300007C00CF008C00DF009C00EF0EECF06F0B6
:10084000EECF07F0EECF08F0EFCF09F0C4EC10F0D8
:1008500005C0EDFF04C0EDFF03C0EDFF02C0EFFFD8
:10086000010EDB0638D7020EE15C02E2E16AE552D6
:10087000E16EE552E7CFD9FF1200D9CFE6FFE1CF15
:10088000D9FFFD0EDBCFE6FFFE0EDBCFE6FF42DE3B
:10089000E552E552D950F90FE96EFF0EDA20EA6E03
:1008A000EECFE6FFEECFE6FFEECFE6FFEFCFE6FFBF
:1008B000C9DEE552E552E552E552E552E7CFD9FFF0
:1008C0001200D9CFE6FFE1CFD9FFFD0EDBCFE6FF67
:1008D000FE0EDBCFE6FF1EDEE552E552FB0EDBCF60
:1008E000E6FFFC0EDBCFE6FFF5DDE552E552E55213
:1008F000E7CFD9FF1200D9CFE6FFE1CFD9FFF9C08A
:1009000010F0FAC011F0040ED89010361136E80637
:10091000FBE1C10E1026000E112210500001FB2534
:10092000E96E1150FC21EA6EFE0EDBCFEFFFFB2BD0
:10093000000EFC23E552E7CFD9FF1200D9CFE6FF26
:10094000E1CFD9FFE652DF6ADFCF10F0100EE76E7D
:100950001018E8AE02D0E73402D0E750105C18E27D
:10096000DFCFE9FFEA6AE9BEEA68C10EE926000EB8
:10097000EA22200EEF6EDFCFE9FFEA6AE9BEEA68FD
:10098000D10EE926000EEA22200EEF6EDF2ADCD718
:10099000E552E552E7CFD9FF1200D9CFE6FFE1CF0C
:1009A000D9FFE6520001C051030A52E0010A36E0C5
:1009B000030A1AE0010A67E1E66AE66AABDDE5527E
:1009C000E552DF6A080EDF5C0CE2DF50EA6AC10F15
:1009D000E96E000EEA22EF50E66E6FDDE552DF2A87
:1009E000F1D70001010E32D0080EE66EE66A92DD04
:1009F000E552E552DF6A080EDF5C0DE2080EDF24E7
:100A0000EA6AC10FE96E000EEA22EF50E66E55DD8C
:100A1000E552DF2AF0D70001020E18D0E66A010E77
:100A2000E66E78DDE552E552DF6A080EDF5C0CE227
:100A3000DF50EA6AD10FE96E000EEA22EF50E66E4F
:100A40003CDDE552DF2AF1D70001030EC06F1CD058
:100A5000080EE66E010EE66E5DDDE552E552DF6AD8
:100A6000080EDF5C0DE2080EDF24EA6AD10FE96EA2
:100A7000000EEA22EF50E66E20DDE552DF2AF0D7C5
:100A80000001C06B01D0C06BE552E552E7CFD9FF42
:100A90001200D9CFE6FFE1CFD9FFE6520001C051E5
:100AA000010A1BE0010A32E1E66AE66A33DDE5523B
:100AB000E552DF6A100EDF5C0CE2DF50EA6AC10F1C
:100AC000E96E000EEA22EF50E66EF7DCE552DF2A0F
:100AD000F1D70001010EC06F1AD0E66A010EE66E72
:100AE00019DDE552E552DF6A100EDF5C0CE2DF50E3
:100AF000EA6AD10FE96E000EEA22EF50E66EDDDC05
:100B0000E552DF2AF1D70001C06B01D0C06BE5527E
:100B1000E552E7CFD9FF1200D9CFE6FFE1CFD9FFE9
:100B2000E652E66AE66AF6DCE552E552DF6A100E46
:100B3000DF5C0CE2DF50EA6AC10FE96E000EEA22C8
:100B4000EF50E66EBADCE552DF2AF1D7E66A010E15
:100B5000E66EE0DCE552E552DF6A100EDF5C0CE287
:100B6000DF50EA6AD10FE96E000EEA22EF50E66E1E
:100B7000A4DCE552DF2AF1D7E552E552E7CFD9FFF1
:100B80001200D9CFE6FFE1CFD9FFFE0EDB50010BFB
:100B90000001F96FFA6BFD0EDB500F0BFB6FFC6B66
:100BA000F9C010F0FAC011F0040ED89010361136CA
:100BB000E806FBE1C10E1026000E112210500001C4
:100BC000FB25E96E1150FC21EA6EFC0EDBCFEFFF36
:100BD000E552E7CFD9FF1200D9CFE6FFE1CFD9FF29
:100BE000020EE126DF6AFE0EDB50010B0001F96FF9
:100BF000FA6BFD0EDB500F0BFB6FFC6BF90EDBCFBE
:100C000010F0FA0EDBCF11F0FB0EDBCF12F0FC0E72
:100C1000DBCF13F0105011101210131005E1300E3D
:100C2000E66E69DEE552F5D0D950F90FE96EFF0E98
:100C3000DA20EA6ED890030EEB50000A08E6000EA8
:100C4000EE5C000EEE58000EEE58000EEE5815E267
:100C50002D0EE66E50DEE552D950F90FE96EFF0E0B
:100C6000DA20EA6E000EEE6CEF1EEE22EF1EEE2290
:100C7000EF1EEF22ED52ED52ED52DE52070EDD6E09
:100C8000010EDBCF10F0000EE76E1018E8AE02D0B8
:100C9000103403D0E750D880105401E3BAD0010ECD
:100CA000DB04146E156A14BE156814C0E6FF15C087
:100CB000E6FF0A0EE66EE66A54DCE552E552E552BE
:100CC000E55206C010F007C011F008C012F009C0CC
:100CD00013F006C00BF007C00CF008C00DF009C0FF
:100CE0000EF0F90EDBCF06F0FA0EDBCF07F0FB0EAD
:100CF000DBCF08F0FC0EDBCF09F0C4EC10F006509F
:100D000007100810091041E0010EDF6EDB04186EB9
:100D1000196A18BE196818C0E6FF19C0E6FF0A0E66
:100D2000E66EE66A1EDCE552E552E552E55206C083
:100D300014F007C015F008C016F009C017F006C07F
:100D40000BF007C00CF008C00DF009C00EF0F90E52
:100D5000DBCF06F0FA0EDBCF07F0FB0EDBCF08F09F
:100D6000FC0EDBCF09F0C4EC10F006C010F007C099
:100D700011F008C012F009C013F0300E1026000E5A
:100D8000112212221322105003D0DF5004E0300E43
:100D9000E66EB1DDE552010EDB04146E156A14BE79
:100DA000156814C0E6FF15C0E6FF0A0EE66EE66A97
:100DB000B1EC02F0E552E552E552E55206C010F002
:100DC00007C011F008C012F009C013F0D950F90F94
:100DD000E96EFF0EDA20EA6E06C00BF007C00CF0D9
:100DE00008C00DF009C00EF0EECF06F0EECF07F010
:100DF000EECF08F0EFCF09F0C4EC10F005C0EDFF26
:100E000004C0EDFF03C0EDFF02C0EFFF010EDB06E3
:100E100037D7020EE15C02E2E16AE552E16EE5528B
:100E2000E7CFD9FF1200D9CFE6FFE1CFD9FFFE0E01
:100E3000DB50010B0001F96FFA6BFD0EDB500F0B5D
:100E4000FB6FFC6BFB0EDBCFF6FFFC0EDBCFF7FF7F
:100E50000800F5500FE0FB0EDBCFF6FFDB2AFC0E9F
:100E6000DBCFF7FF01E3DB2A0800F550E66E43DD38
:0C0E7000E552E8D7E552E7CFD9FF1200A9
:040E7C00D9CFE6FFE5
:100E8000E1CFD9FFD59EFD0EDBCFE1F0FE0EDBCF2B
:100E9000E2F0D59C13681468156AE1C016F0E2C050
:100EA00017F0186A1650135C106E17501458116E14
:100EB00018501558126E0C6A010E0D6E0E6A10C095
:100EC00007F011C008F012C009F010EC10F0035048
:100ED000D66E13681468156AE1C016F0E2C017F008
:100EE000186A1650135C106E17501458116E185073
:100EF0001558126E0C6A010E0D6E0E6A10C007F0C6
:100F000011C008F012C009F010EC10F007C010F08A
:100F100008C011F009C012F00750D76ED59AD586D7
:100F2000F28AF294F184D58EE552E7CFD9FF120010
:100F3000D59E120013681468156AE1C016F0E2C06D
:100F400017F0186A1650135C106E17501458116E73
:100F500018501558126E0C6A010E0D6E0E6A10C0F4
:100F600007F011C008F012C009F010EC10F00350A7
:100F7000D66E13681468156AE1C016F0E2C017F067
:100F8000186A1650135C106E17501458116E1850D2
:100F90001558126E0C6A010E0D6E0E6A10C007F025
:100FA00011C008F012C009F010EC10F007C010F0EA
:100FB00008C011F009C012F00750D76ED58E12008C
:100FC000D9CFE6FFE1CFD9FFCD90FD0EDBCFE3F027
:100FD000FE0EDBCFE4F013681468156AE3C016F068
:100FE000E4C017F0186A1650135C106E17501458AE
:100FF000116E18501558126E0C6A010E0D6E0E6AA5
:1010000010C007F011C008F012C009F010EC10F089
:101010000750CF6E13681468156AE3C016F0E4C079
:1010200017F0186A1650135C106E17501458116E92
:1010300018501558126E0C6A010E0D6E0E6A10C013
:1010400007F011C008F012C009F010EC10F003C056
:1010500010F004C011F005C012F00350CE6E9D8058
:101060009E909F90CD8ECD8CCD98CD9ACD96CD92E1
:10107000CD80E552E7CFD9FF120013681468156AD6
:10108000E3C016F0E4C017F0186A1650135C106E37
:1010900017501458116E18501558126E0C6A010E24
:1010A0000D6E0E6A10C007F011C008F012C009F0F2
:1010B00010EC10F00750CF6E13681468156AE3C087
:1010C00016F0E4C017F0186A1650135C106E175033
:1010D0001458116E18501558126E0C6A010E0D6ED0
:1010E0000E6A10C007F011C008F012C009F010EC31
:1010F00010F003C010F004C011F005C012F003504E
:10110000CE6ECD801200CD901200D9CFE6FFE1CF98
:10111000D9FFCA94CC6AFE0EDB500001E56FE66B86
:10112000CB6E9D829E929F92CA90CA92CA84E552CB
:10113000E7CFD9FF1200E5C0CBFFCA841200CA94E2
:101140001200D9CFE6FFE1CFD9FFB190FD0EDBCF82
:10115000E7F0FE0EDBCFE8F013681468156AE7C00D
:1011600016F0E8C017F0186A1650135C106E17508E
:101170001458116E18501558126E0C6A010E0D6E2F
:101180000E6A10C007F011C008F012C009F010EC90
:1011900010F00750B36E13681468156AE7C016F0B4
:1011A000E8C017F0186A1650135C106E17501458E8
:1011B000116E18501558126E0C6A010E0D6E0E6AE3
:1011C00010C007F011C008F012C009F010EC10F0C8
:1011D00003C010F004C011F005C012F00350B26E4D
:1011E000A082A192A292B18EB198B19AB192B1802F
:1011F000E552E7CFD9FF120013681468156AE7C0FB
:1012000016F0E8C017F0186A1650135C106E1750ED
:101210001458116E18501558126E0C6A010E0D6E8E
:101220000E6A10C007F011C008F012C009F010ECEF
:1012300010F00350B26E13681468156AE7C016F018
:10124000E8C017F0186A1650135C106E1750145847
:10125000116E18501558126E0C6A010E0D6E0E6A42
:1012600010C007F011C008F012C009F010EC10F027
:1012700007C010F008C011F009C012F00750B36E9B
:10128000B1801200B19012000001000ED880F1551B
:10129000000EF25508E2F107000EF25BF151F21177
:1012A00002E1010EE96F12000001000ED880F35533
:1012B000000EF45508E2F307000EF45BF351F4114D
:1012C00002E1010EEA6F12000001000ED880F55510
:1012D000000EF65508E2F507000EF65BF551F61123
:1012E00002E1010EEB6F12000001000ED880F755ED
:1012F000000EF85508E2F707000EF85BF751F811F9
:1013000002E1010EEC6F1200D9CFE6FFE1CFD9FF69
:10131000FD0EDBCFF1F0FE0EDBCFF2F00001E96B4A
:10132000E552E7CFD9FF1200D9CFE6FFE1CFD9FFD1
:10133000FD0EDBCFF3F0FE0EDBCFF4F0020E0D6EF0
:101340000E6AF3C008F0F4C009F0EAEC0FF008C030
:10135000F3F009C0F4F00001EA6BE552E7CFD9FFE2
:101360001200D9CFE6FFE1CFD9FFFD0EDBCFF7F0BA
:10137000FE0EDBCFF8F00A0E0D6E0E6AF7C008F015
:10138000F8C009F0EAEC0FF008C0F7F009C0F8F077
:0C1390000001EC6BE552E7CFD9FF120022
:04139C00D9CFE6FFC0
:1013A000E1CFD9FFFE0EEA6ADB34FE0BEA36E96EC6
:1013B000000EE9260F0EEA22010EEE1810E1ED50A4
:1013C0000EE1FE0EEA6ADB34FE0BEA36E96E000E31
:1013D000E9260F0EEA22EE6AED6A010E01D0000E38
:1013E000E552E7CFD9FF1200D9CFE6FFE1CFD9FF11
:1013F000FD0EDBCFE9FFFE0EDBCFEAFF280EE9266C
:101400000F0EEA22EF50020A01E186D0020A57E0ED
:10141000010A01E0E1D0FD0EDBCFE9FFFE0EDBCFDC
:10142000EAFF380EE9260F0EEA22EF2AFD0EDBCF87
:10143000E9FFFE0EDBCFEAFF680EE9260F0EEA2277
:10144000EF0416E1FD0EDBCFE9FFFE0EDBCFEAFF76
:10145000280EE9260F0EEA22EF6AFD0EDBCFE9FF28
:10146000FE0EDBCFEAFF380EE9260F0EEA22EF6A06
:10147000FD0EDBCFE9FFFE0EDBCFEAFF380EE926DB
:101480000F0EEA22EF50640801E0A6D0FD0EDBCF7C
:10149000E9FFFE0EDBCFEAFF280EE9260F0EEA2257
:1014A000020EEF6EFD0EDBCFE9FFFE0EDBCFEAFF93
:1014B000010ED890E936EA36E806FBE17BD0FD0E56
:1014C000DBCFE9FFFE0EDBCFEAFF680EE9260F0E49
:1014D000EA22EF5001E080D0FD0EDBCFE9FFFE0EE7
:1014E000DBCFEAFF280EE9260F0EEA22010EEF6E8F
:1014F000FD0EDBCFE9FFFE0EDBCFEAFF010ED89039
:10150000E936EA36E806FBE1000EE9260F0EEA228C
:10151000010EEE6EED6A60D0FD0EDBCFE9FFFE0E30
:10152000DBCFEAFF380EE9260F0EEA22EF2AFD0E86
:10153000DBCFE9FFFE0EDBCFEAFF680EE9260F0ED8
:10154000EA22EF0416E1FD0EDBCFE9FFFE0EDBCF52
:10155000EAFF280EE9260F0EEA22EF6AFD0EDBCF26
:10156000E9FFFE0EDBCFEAFF380EE9260F0EEA2276
:10157000EF6AFD0EDBCFE9FFFE0EDBCFEAFF380E90
:10158000E9260F0EEA22EF50106E116AD890115022
:1015900004E6C80E105C000E11581EE3FD0EDBCFF2
:1015A000E9FFFE0EDBCFEAFF010ED890E936EA36FE
:1015B000E806FBE1000EE9260F0EEA22010EEE6EB0
:1015C000ED6AFD0EDBCFE9FFFE0EDBCFEAFF380E42
:1015D000E9260F0EEA22EF6AE552E7CFD9FF1200A3
:1015E0000F0E946E82681200D9CFE6FFE1CFD9FFCB
:1015F000040EE126DE6ADD6ADECF10F0DDCF11F0E9
:10160000D890115004E6040E105C000E115801E34E
:1016100005D1DECFE9FFDDCFEAFF200EE9260F0E70
:10162000EA22EF1C826E020EDB6A030EDB6A020EF8
:10163000DBCF10F0030EDBCF11F0D890115004E691
:10164000040E105C000E115801E3E2D0DECF12F060
:10165000DDCF13F0D89012361336D89012361336E9
:10166000020EDB501224E96E030EDB501320EA6EEB
:10167000580EE9260F0EEA22EF50E66EDECF10F08C
:10168000DDCF11F0D89010361136D89010361136C3
:10169000020EDB501024E96E030EDB501120EA6EBF
:1016A000480EE9260F0EEA22E552E750EF6E020ED1
:1016B000DBCF12F0DBCFE9FF030EDBCFEAFF240E16
:1016C000E9260F0EEA22EF50821412C0E7FFE7521C
:1016D00004E0E8427F0BE706FCE1E66EDECF10F0A7
:1016E000DDCF11F0D89010361136D8901036113663
:1016F000020EDB501024E96E030EDB501120EA6E5F
:10170000580EE9260F0EEA22E552E750EF6EDECFC3
:1017100011F0DDCF12F0D89011361236D890113674
:101720001236020EDB501124E96E030EDB5012203C
:10173000EA6E480EE9260F0EEA22EFCF10F0DECF58
:1017400013F0DDCF14F0D89013361436D89013363A
:101750001436020EDB501324E96E030EDB50142006
:10176000EA6E580EE9260F0EEA22EF50105C49E1AE
:10177000DECF12F0DDCF13F0D89012361336D890AA
:1017800012361336020EDB501224E96E030EDB50C4
:101790001320EA6E480EE9260F0EEA22EF50E66E9D
:1017A000DECF10F0DDCF11F0D89010361136D89082
:1017B00010361136020EDB501024E96E030EDB509A
:1017C0001120EA6E680EE9260F0EEA22E552E75074
:1017D000EF6EDECF12F0DDCF13F0D8901236133655
:1017E000D89012361336020EDB501224106E030E00
:1017F000DB501320116E10C0E6FFE66EF5DDE552FA
:10180000E552020EDB2A030E01E211D7DB2A0FD7C5
:10181000DF2A010E01E2F0D6DB2AEED6040EE15CEF
:1018200002E2E16AE552E16EE552E7CFD9FF12002C
:1018300001010A51040A01E1A1D0070A72E0010A7C
:1018400042E0030A13E0010A01E01200E80EE66E2E
:10185000030EE66EB1EC09F0E552E5520DC10BF155
:1018600012C10CF10101010E0A6F12000AEC0EF018
:101870004DEC0EF00001EC0513E1E80EE66E030EF0
:10188000E66EB1EC09F0E552E55201010B070101EA
:101890000C070C5105E110C10CF10101020E0A6F99
:1018A000030EE66ECEEC09F0E552000901E19AD094
:1018B000500EE66E460EE66EB1EC09F0E552E552CA
:1018C00001010B0E89D00AEC0EF03FEC0EF0000186
:1018D000EC0515E1E80EE66E030EE66EB1EC09F0DC
:1018E000E552E55201010B0701010C070C5107E11C
:1018F00011C10BF10EC10CF10101030E0A6F030EB1
:10190000E66ECEEC09F0E55200096CE0500EE66E92
:10191000460EE66EB1EC09F0E552E55201010C0EFF
:101920005BD024EC0EF031EC0EF00001EC0514E17C
:10193000E80EE66E030EE66EB1EC09F0E552E552F4
:1019400001010B0701010C0701010B5105E10FC15A
:101950000BF10101040E0A6F030EE66ECEEC09F0E6
:10196000E55200093FE0500EE66E460EE66EB1EC21
:1019700009F0E552E55201010D0E2ED017EC0EF0E4
:1019800031EC0EF00001EC0516E1E80EE66E030EF8
:10199000E66EB1EC09F0E552E55201010B070101D9
:1019A0000C0701010B5107E10DC10BF112C10CF144
:1019B0000101010E0A6F030EE66ECEEC09F0E5524E
:1019C000000910E0500EE66E460EE66EB1EC09F02E
:1019D000E552E55201010E0E0A6F01010B6B010188
:1019E0000C6B1200120001010A510E0A01E181D0B4
:1019F000030A56E0010A2CE0070A01E012000AEC93
:101A00000EF04DEC0EF00001EC050FE1E80EE66E75
:101A1000030EE66EB1EC09F0E552E55210C10BF190
:101A200010C10CF10101020E0A6F070EE66ECEEC3A
:101A300009F0E552000901E184D0500EE66E460E31
:101A4000E66EB1EC09F0E552E55201010C0E4FD003
:101A50000AEC0EF03FEC0EF00001EC050FE1E80E91
:101A6000E66E030EE66EB1EC09F0E552E55211C1E7
:101A70000BF10EC10CF10101030E0A6F070EE66EA9
:101A8000CEEC09F0E55200095CE0500EE66E460E21
:101A9000E66EB1EC09F0E552E55201010D0E27D0DA
:101AA00024EC0EF031EC0EF00001EC050FE1E80E35
:101AB000E66E030EE66EB1EC09F0E552E5520FC199
:101AC0000BF110C10CF10101040E0A6F070EE66E56
:101AD000CEEC09F0E552000934E0500EE66E460EF9
:101AE000E66EB1EC09F0E552E55201010E0E0A6F07
:101AF000120017EC0EF031EC0EF00001EC050FE1D6
:101B0000E80EE66E030EE66EB1EC09F0E552E55222
:101B10000DC10BF112C10CF10101010E0A6F070E8C
:101B2000E66ECEEC09F0E55200090BE0500EE66ED1
:101B3000460EE66EB1EC09F0E552E55201010B0EDE
:041B40000A6F120016
:0C1B4400816A1200D9CFE6FFE1CFD9FF83
:101B5000000EF36EFE0EDBCFF4FFF350F45C12E3E5
:101B6000080EF36EFE0EDBCFF4FFF350F45C0AE2D6
:101B7000FE0EDB50EA6A780FE96E0F0EEA22EF5094
:101B80008110816EE552E7CFD9FF1200D9CFE6FF71
:101B9000E1CFD9FF000EF36EFE0EDBCFF4FFF35062
:101BA000F45C12E3080EF36EFE0EDBCFF4FFF3508D
:101BB000F45C0AE2FE0EDB50EA6A780FE96E0F0E63
:101BC000EA22EF1C8114816EE552E7CFD9FF1200A3
:101BD000D9CFE6FFE1CFD9FF000EF36EFE0EDBCFCB
:101BE000F4FFF350F45C12E3080EF36EFE0EDBCF4D
:101BF000F4FFF350F45C0AE2FE0EDB50EA6A780F61
:101C0000E96E0F0EEA22EF508118816EE552E7CFA0
:101C1000D9FF1200140EE66E000EE66EE66AE66A62
:101C200013EC07F0E552E552E552E5521200110EB1
:101C3000E66E000EE66EE66AE66A13EC07F0E55221
:101C4000E552E552E55212000E0EE66E000EE66E0B
:101C5000E66AE66A13EC07F0E552E552E552E55212
:101C60001200140EE66E000EE66EE66A010EE66ED7
:101C700013EC07F0E552E552E552E5521200110E61
:101C8000E66E000EE66EE66A010EE66E13EC07F0F5
:101C9000E552E552E552E55212000E0EE66E000ED8
:101CA000E66EE66A010EE66E13EC07F0E552E552C9
:101CB000E552E552120001010B5116E00BC110F084
:101CC000116A126A136A0BC1E6FF11C0E6FF12C067
:101CD000E6FF13C0E6FF050EE66EE66AECEC05F0E3
:101CE000146E060EE15E145001010C5117E00CC198
:101CF00010F0116A126A136A0CC1E6FF11C0E6FF08
:101D000012C0E6FF13C0E6FF050EE66E010EE66E9A
:0E1D1000ECEC05F0146E060EE15E14501200AD
:021D1E00F28E43
:101D2000D08EF28C1200F19CF292F2881200D8CF81
:101D3000E4FFE0CFE4FFE46EDACFE4FFE2CFDAFFC6
:101D4000E9CFE4FFEACFE4FFF6CFE4FFF7CFE4FF0B
:101D5000F5CFE4FFF3CFE4FFF4CFE4FFFACFE4FFE5
:101D600000EE00F0100EE80403E3EECFE4FFFBD733
:101D700000EE10F00A0EE80403E3EECFE4FFFBD719
:101D8000E652F2A407D098EC07F0F2949AEC07F030
:101D900044EC09F09EA007D083EC08F09E903DEC47
:101DA00008F054EC09F0A1A207D042EC09F0A1928E
:101DB000FCEC08F074EC09F0F2B2F2929EBA9E9A32
:101DC000E55200EE19F00A0EE80403E3E5CFEDFF5B
:101DD000FBD700EE0FF0100EE80403E3E5CFEDFFB4
:101DE000FBD7E5CFFAFFE5CFF4FFE5CFF3FFE5CF73
:101DF000F5FFE5CFF7FFE5CFF6FFE5CFEAFFE5CF4B
:101E0000E9FFE5CFDAFFE550E5CFE0FFE5CFD8FF0A
:101E10001000DACFE4FFE2CFDAFFE9CFE4FFEACF48
:101E2000E4FFF6CFE4FFF7CFE4FFF5CFE4FFF3CF15
:101E3000E4FFF4CFE4FFFACFE4FF00EE00F0100E71
:101E4000E80403E3EECFE4FFFBD700EE10F00A0E48
:101E5000E80403E3EECFE4FFFBD7E652F2A407D099
:101E600098EC07F0F2949AEC07F044EC09F09EA08D
:101E700007D083EC08F09E903DEC08F054EC09F09C
:101E8000A1A209D042EC09F0A192FCEC08F0F4EC1C
:101E90000AF074EC09F0F2B2F2929EBA9E9AE55200
:101EA00000EE19F00A0EE80403E3E5CFEDFFFBD7DF
:101EB00000EE0FF0100EE80403E3E5CFEDFFFBD7D3
:101EC000E5CFFAFFE5CFF4FFE5CFF3FFE5CFF5FF70
:101ED000E5CFF7FFE5CFF6FFE5CFEAFFE5CFE9FF76
:061EE000E5CFDAFF11005E
:0A1EE6000BD89EEC04F018EC0CF091
:101EF000F3EC0CF05BEC0EF0CDEC04F0F5D7936A4C
:101F0000FEEC00F08FEC0EF0F0EC0AF0570EE66EEF
:101F1000120EE66E3EEC07F0E552E552AE0EE66EAE
:101F2000240EE66EE0EC07F0E552E552660EE66E32
:101F3000B70EE66EA1EC08F0E552E552E80EE66E4B
:101F4000030EE66E03D8E552E5521200D9CFE6FF44
:101F5000E1CFD9FF040EE126DE6ADD6ADECF10F0A4
:101F6000DDCF11F0FD0EDBCF12F0FE0EDBCF13F054
:101F700011501318E8AE02D0133404D01250105C84
:101F8000135011581DE2020EDB6A030EDB6A020ECB
:101F9000DBCF10F0030EDBCF11F0D890115004E628
:101FA000EE0E105C000E115806E2020EDB2A030E44
:101FB000EEE3DB2AECD7DF2A010ED0E3DB2ACED713
:101FC000040EE15C02E2E16AE552E16EE552E7CF20
:041FD000D9FF120023
:0C1FD400006A0EAEF3EF0FF00D6C0E1E55
:101FE000E86A0E22001E09AEFBEF0FF0086C091E16
:101FF000E86A0922001E05EC11F009BE0BEF10F093
:1020000000AE000C086C091EE86A0922046C051E6B
:10201000E86A0522000C00BE02EF10F00188FF0CF8
:10202000006A0EAE1BEF10F00C6C0D1E0E1EE86A5F
:102030000D220E22001E09AE25EF10F0076C081EBF
:10204000091EE86A08220922001EE8EC10F009BE09
:1020500038EF10F000AE000C076C081E091EE86A8D
:1020600008220922036C041E051E04220522000C0E
:0A20700000BE2CEF10F00188FF0CF9
:06207A001E0EF66E000EC2
:10208000F76E000EF86E01010900F550056F0900AA
:10209000F550066F03E1056701D03DD00900F5500A
:1020A000006F0900F550016F0900F550026F09003B
:1020B0000900F550E96E0900F550EA6E09000900C3
:1020C0000900F550036F0900F550046F090009007D
:1020D000F6CF07F1F7CF08F1F8CF09F100C1F6FF0D
:1020E00001C1F7FF02C1F8FF0101035302E10453EC
:1020F00007E00900F550EE6E0307F8E20407F9D790
:1021000007C1F6FF08C1F7FF09C1F8FF0101050784
:08211000000E065BBFD71200B0
:0821180006500B02F3CF02F0A8
:10212000F4CF03F00C02F3500326000EF420046EEB
:1021300006500D02F3500426000EF420056E0650E2
:102140000E02F350052607500B02F3500326F450FD
:102150000422000E052207500C02F3500426F4500E
:10216000052207500D02F350052608500B02F350CC
:102170000426F450052208500C02F350052609509D
:082180000B02F35005261200CA
:08218800056A046A036A026A99
:10219000200EE76ED8900636073608360936023626
:1021A0000336043605360B50025C0C5003580D50B4
:1021B00004580E50055809E30B50025E0C50035AA8
:1021C0000D50045A0E50055A062AE72EE4D7120085
:1021D000056A046A036A180EE76ED8900736083657
:1021E00009360336043605360C50035C0D5004588E
:1021F0000E50055807E30C50035E0D50045A0E5064
:0A220000055A072AE72EEAD712005C
:06220A00056A046A100ED3
:10221000E76ED89008360936043605360D50045C52
:102220000E50055805E30D50045E0E50055A082A5D
:06223000E72EF0D71200BA
:0A223600800EF36E00EE00F00F0EB4
:1022400001D81200EA6002D0EE6AFCD7F350E960D0
:062250001200EE6AFCD74B
:0A2256001EEE00F02EEE00F0F86A14
:10226000019C3DEC10F003EC00F073EC0FF0FBD799
:0222700012005A
:0E22720000000000000000000000000000005E
:0A2280000000000000000000000054
:06228A000000000000004E
:10229000000010101010101010101818181818182E
:1022A00018181C1C1C1C1C1C1C1C1E1E1E1E1E1E6A
:1022B0001E1E1F1F1F1F1F1F1F1F000000000000EA
:1022C000000000000000000000000000000000000E
:1022D00000000000000000000000000000000000FE
:0B22E0000000000000000000000000F3
:0522EB000000000A0ADA
:0422F00003030707D6
:0822F4000102040810204080E3
:0422FC0000000000DE
:1023000000000000000000000000000000000000CD
:1023100000000000000000000000000010204080CD
:10232000010204080000000000000000000000009E
:10233000000000000000000000000000000000009D
:042340000000000099
:020000040030CA
:0100010002FC
:0100020003FA
:010003001EDE
:010005008179
:010006008178
:010008000FE8
:01000900C036
:01000A000FE6
:01000B00E014
:01000C000FE4
:01000D0040B2
:00000001FF
