:020000040000FA
:0600000055EF05F01200AF
:020006001200E6
:0600080026EF03F01200D8
:02000E000102ED
:06001000040810204080EE
:06001800B4EF02F012003B
:02001E000200DE
:100020000E000000A200000008000000C60A000048
:08003000800000001800000030
:08003800D9CFE6FFE1CFD9FFAB
:10004000D59EFD0EDBCF80F0FE0EDBCF81F0D59C80
:1000500013681468156A80C016F081C017F0186A1A
:100060001650135C106E17501458116E1850155816
:10007000126E0C6A010E0D6E0E6A10C007F011C0F0
:1000800008F012C009F096EC04F00350D66E136825
:100090001468156A80C016F081C017F0186A1650EF
:1000A000135C106E17501458116E18501558126EBC
:1000B0000C6A010E0D6E0E6A10C007F011C008F038
:1000C00012C009F096EC04F007C010F008C011F05F
:1000D00009C012F00750D76ED59AD586F28AF294ED
:1000E000F184D58EE552E7CFD9FF1200D59E1200DC
:1000F00013681468156A80C016F081C017F0186A7A
:100100001650135C106E17501458116E1850155875
:10011000126E0C6A010E0D6E0E6A10C007F011C04F
:1001200008F012C009F096EC04F00350D66E136884
:100130001468156A80C016F081C017F0186A16504E
:10014000135C106E17501458116E18501558126E1B
:100150000C6A010E0D6E0E6A10C007F011C008F097
:1001600012C009F096EC04F007C010F008C011F0BE
:1001700009C012F00750D76ED58E1200D9CFE6FF16
:10018000E1CFD9FFCD90FD0EDBCF82F0FE0EDBCFAD
:1001900083F013681468156A82C016F083C017F0E4
:1001A000186A1650135C106E17501458116E1850C0
:1001B0001558126E0C6A010E0D6E0E6A10C007F013
:1001C00011C008F012C009F096EC04F00750CF6E91
:1001D00013681468156A82C016F083C017F0186A95
:1001E0001650135C106E17501458116E1850155895
:1001F000126E0C6A010E0D6E0E6A10C007F011C06F
:1002000008F012C009F096EC04F003C010F004C02E
:1002100011F005C012F00350CE6E9D809E909F900D
:10022000CD8ECD8CCD98CD9ACD96CD92CD80E55208
:10023000E7CFD9FF120013681468156A82C016F060
:1002400083C017F0186A1650135C106E17501458BC
:10025000116E18501558126E0C6A010E0D6E0E6A52
:1002600010C007F011C008F012C009F096EC04F0BD
:100270000750CF6E13681468156A82C016F083C0E9
:1002800017F0186A1650135C106E17501458116E40
:1002900018501558126E0C6A010E0D6E0E6A10C0C1
:1002A00007F011C008F012C009F096EC04F003C08A
:1002B00010F004C011F005C012F00350CE6ECD80D6
:1002C0001200CD901200D9CFE6FFE1CFD9FFCA943A
:1002D000CC6AFE0EDB500001846F856BCB6E9D8275
:1002E0009E929F92CA90CA92CA84E552E7CFD9FFE4
:1002F000120084C0CBFFCA841200CA941200D9CF66
:10030000E6FFE1CFD9FFB190FD0EDBCF86F0FE0E08
:10031000DBCF87F013681468156A86C016F087C0B3
:1003200017F0186A1650135C106E17501458116E9F
:1003300018501558126E0C6A010E0D6E0E6A10C020
:1003400007F011C008F012C009F096EC04F0075055
:10035000B36E13681468156A86C016F087C017F06C
:10036000186A1650135C106E17501458116E1850FE
:100370001558126E0C6A010E0D6E0E6A10C007F051
:1003800011C008F012C009F096EC04F003C010F0A0
:1003900004C011F005C012F00350B26EA082A19209
:1003A000A292B18EB198B19AB192B180E552E7CFE5
:1003B000D9FF120013681468156A86C016F087C04A
:1003C00017F0186A1650135C106E17501458116EFF
:1003D00018501558126E0C6A010E0D6E0E6A10C080
:1003E00007F011C008F012C009F096EC04F00350B9
:1003F000B26E13681468156A86C016F087C017F0CD
:10040000186A1650135C106E17501458116E18505D
:100410001558126E0C6A010E0D6E0E6A10C007F0B0
:1004200011C008F012C009F096EC04F007C010F0FB
:1004300008C011F009C012F00750B36EB18012006D
:10044000B19012000001000ED8809055000E915519
:1004500008E29007000E915B9051911102E1010EAC
:10046000886F12000001000ED8809255000E93553F
:1004700008E29207000E935B9251931102E1010E84
:10048000896F12000001000ED8809455000E95551A
:1004900008E29407000E955B9451951102E1010E5C
:1004A0008A6F12000001000ED8809655000E9755F5
:1004B00008E29607000E975B9651971102E1010E34
:1004C0008B6F1200D9CFE6FFE1CFD9FFFD0EDBCF56
:1004D00090F0FE0EDBCF91F00001886BE552E7CF84
:1004E000D9FF1200D9CFE6FFE1CFD9FFFD0EDBCF58
:1004F00092F0FE0EDBCF93F0050E0D6E0E6A92C0E9
:1005000008F093C009F070EC04F008C092F009C044
:1005100093F00001896BE552E7CFD9FF1200D9CFE4
:10052000E6FFE1CFD9FFFD0EDBCF96F0FE0EDBCF6D
:1005300097F00A0E0D6E0E6A96C008F097C009F08B
:1005400070EC04F008C096F009C097F000018B6BC6
:08055000E552E7CFD9FF1200CC
:08055800F28ED08EF28C12002D
:10056000F19CF292F2881200D8CFE4FFE0CFE4FFD2
:10057000E46EDACFE4FFE2CFDAFFE9CFE4FFEACFBF
:10058000E4FFF6CFE4FFF7CFE4FFF5CFE4FFF3CFCE
:10059000E4FFF4CFE4FFFACFE4FF00EE00F0100E2A
:1005A000E80403E3EECFE4FFFBD700EE10F0090E02
:1005B000E80403E3EECFE4FFFBD7E652F2A407D052
:1005C00076EC00F0F29478EC00F022EC02F09EA0C1
:1005D00007D061EC01F09E901BEC01F032EC02F0D0
:1005E000A1A207D020EC02F0A192DAEC01F052ECCB
:1005F00002F0F2B2F2929EBA9E9AE55200EE18F024
:10060000090EE80403E3E5CFEDFFFBD700EE0FF0A2
:10061000100EE80403E3E5CFEDFFFBD7E5CFFAFFCB
:10062000E5CFF4FFE5CFF3FFE5CFF5FFE5CFF7FF2B
:10063000E5CFF6FFE5CFEAFFE5CFE9FFE5CFDAFF4B
:10064000E550E5CFE0FFE5CFD8FF1000DACFE4FFBB
:10065000E2CFDAFFE9CFE4FFEACFE4FFF6CFE4FF31
:10066000F7CFE4FFF5CFE4FFF3CFE4FFF4CFE4FFEF
:10067000FACFE4FF00EE00F0100EE80403E3EECF43
:10068000E4FFFBD700EE10F0090EE80403E3EECF21
:10069000E4FFFBD7E652F2A407D076EC00F0F29428
:1006A00078EC00F022EC02F09EA007D061EC01F0A3
:1006B0009E901BEC01F032EC02F0A1A207D020ECDE
:1006C00002F0A192DAEC01F052EC02F0F2B2F292F6
:1006D0009EBA9E9AE55200EE18F0090EE80403E374
:1006E000E5CFEDFFFBD700EE0FF0100EE80403E3BB
:1006F000E5CFEDFFFBD7E5CFFAFFE5CFF4FFE5CF80
:10070000F3FFE5CFF5FFE5CFF7FFE5CFF6FFE5CF48
:0C071000EAFFE5CFE9FFE5CFDAFF1100BA
:04071C0010D8E80EFB
:10072000E66E030EE66E72EC02F0E552E552000151
:100730008905FDE1E66A4EEC04F0E552F0D7936AD4
:1007400008EC04F0ACEC02F0570EE66E120EE66E0A
:100750001CEC00F0E552E552AE0EE66E240EE66E9D
:10076000BEEC00F0E552E552660EE66EB70EE66EA0
:100770007FEC01F0E552E552E80EE66E030EE66E00
:1007800003D8E552E5521200D9CFE6FFE1CFD9FFF9
:10079000040EE126DE6ADD6ADECF10F0DDCF11F057
:1007A000FD0EDBCF12F0FE0EDBCF13F0115013184D
:1007B000E8AE02D0133404D01250105C135011581C
:1007C0001DE2020EDB6A030EDB6A020EDBCF10F0C5
:1007D000030EDBCF11F0D890115004E6EE0E105C42
:1007E000000E115806E2020EDB2A030EEEE3DB2AAE
:1007F000ECD7DF2A010ED0E3DB2ACED7040EE15C72
:1008000002E2E16AE552E16EE552E7CFD9FF12005C
:10081000816A1200D9CFE6FFE1CFD9FF000EF36E57
:10082000FE0EDBCFF4FFF350F45C12E3080EF36E20
:10083000FE0EDBCFF4FFF350F45C0AE2FE0EDB5059
:10084000EA6AA20FE96E000EEA22EF508110816E73
:10085000E552E7CFD9FF1200D9CFE6FFE1CFD9FFAC
:10086000000EF36EFE0EDBCFF4FFF350F45C12E3E8
:10087000080EF36EFE0EDBCFF4FFF350F45C0AE2D9
:10088000FE0EDB50EA6AA20FE96E000EEA22EF1CB0
:100890008114816EE552E7CFD9FF1200D9CFE6FF70
:1008A000E1CFD9FF000EF36EFE0EDBCFF4FFF35065
:1008B000F45C12E3080EF36EFE0EDBCFF4FFF35090
:1008C000F45C0AE2FE0EDB50EA6AA20FE96E000E4B
:1008D000EA22EF508118816EE552E7CFD9FF12006E
:1008E000006A0EAE79EF04F00D6C0E1EE86A0E225F
:1008F000001E09AE81EF04F0086C091EE86A0922A7
:10090000001E2FEC05F009BE91EF04F000AE000CC4
:10091000086C091EE86A0922046C051EE86A0522B3
:10092000000C00BE88EF04F00188FF0C006A0EAED8
:10093000A1EF04F00C6C0D1E0E1EE86A0D220E22B3
:10094000001E09AEABEF04F0076C081E091EE86A32
:1009500008220922001E12EC05F009BEBEEF04F0C9
:1009600000AE000C076C081E091EE86A0822092266
:10097000036C041E051E04220522000C00BEB2EF0B
:0609800004F00188FF0CE9
:0A0986001E0EF66E000EF76E000E56
:10099000F86E00010900F5509D6F0900F5509E6F3B
:1009A00003E19D6701D03DD00900F550986F090023
:1009B000F550996F0900F5509A6F09000900F5503C
:1009C000E96E0900F550EA6E090009000900F550CA
:1009D0009B6F0900F5509C6F09000900F6CF9FF04E
:1009E000F7CFA0F0F8CFA1F098C0F6FF99C0F7FFBD
:1009F0009AC0F8FF00019B5302E19C5307E00900F5
:100A0000F550EE6E9B07F8E29C07F9D79FC0F6FF02
:100A1000A0C0F7FFA1C0F8FF00019D07000E9E5B7C
:040A2000BFD712002A
:0C0A2400056A046A036A180EE76ED89099
:100A30000736083609360336043605360C50035C93
:100A40000D5004580E50055807E30C50035E0D502E
:0E0A5000045A0E50055A072AE72EEAD7120064
:020A5E00056A27
:100A6000046A100EE76ED89008360936043605364B
:100A70000D50045C0E50055805E30D50045E0E50F9
:0A0A8000055A082AE72EF0D71200ED
:060A8A00800EF36E00EE89
:100A900000F00F0E01D81200EA6002D0EE6AFCD717
:0A0AA000F350E9601200EE6AFCD783
:060AAA001EEE00F02EEE2E
:100AB00000F0F86A019CC3EC04F003EC00F08EEC4B
:060AC00003F0FBD7120059
:0A0AC6000000000000000000000026
:0E0AD000000000000000000000000000000018
:020000040030CA
:0100010002FC
:0100020003FA
:010003001EDE
:010005008179
:010006008178
:010008000FE8
:01000900C036
:01000A000FE6
:01000B00E014
:01000C000FE4
:01000D0040B2
:00000001FF
