:020000040000FA
:06000000ABEF1EF0120040
:020006001200E6
:0600080021EF1CF01200C4
:02000E000000F0
:08001000000A0A0303070714AC
:06001800AFEF1BF0120027
:02001E000500DB
:10002000163E000080000000680000000A3E00004C
:10003000E80000000C0000000E000000300100008D
:100040000A000000A93D0000000F00006100000050
:0C0050008E3D0000610F00001B0000004E
:04005C00010130511D
:10006000040A01E1B8D1070A01E139D1010A01E12D
:10007000A8D0030A20E0010A01E01200010E306F4F
:1000800001013951106E116AE80E1102F3CF11F01F
:10009000030E1002F3501126E80E1002F3CF10F0F9
:1000A000F4501126F3CFE6FF11C0E6FF6FEC16F017
:1000B000E552E5521200D10EE66E3B0EE66EE66AA0
:1000C000E66AC3EC13F0E552E552E552E552C00E84
:1000D000E66E3B0EE66EE66A010EE66EC3EC13F0CA
:1000E000E552E552E552E5520101316B0101326BF7
:1000F000030EE66ECFEC16F0E55200091DE001019B
:100100003951106E116AE80E1102F3CF11F0030E8F
:100110001002F3501126E80E1002F3CF10F0F45045
:100120001126F3CFE6FF11C0E6FF6FEC16F0E552A3
:10013000E5520101020E306F070EE66ECFEC16F0AD
:10014000E55200091DE001013951106E116AE80EF7
:100150001102F3CF11F0030E1002F3501126E80E36
:100160001002F3CF10F0F4501126F3CFE6FF11C0C8
:10017000E6FF6FEC16F0E552E5520101040E306F18
:100180000B0EE66ECFEC16F0E55200090FE0E80E1C
:10019000E66E030EE66E6FEC16F0E552E5520101D5
:1001A0000B0E306F33C131F138C132F10F016C5198
:1001B00001E1BAD1E80EE66E030EE66E6FEC16F0C2
:1001C000AAD1AF0EE66E3B0EE66EE66AE66AC3ECB7
:1001D00013F0E552E552E552E552C00EE66E3B0ED5
:1001E000E66EE66A010EE66EC3EC13F0E552E552E8
:1001F000E552E5520101316B0101326B030EE66EEF
:10020000CFEC16F0E55200091DE001013951106EE6
:10021000116AE80E1102F3CF11F0030E1002F35031
:100220001126E80E1002F3CF10F0F4501126F3CF90
:10023000E6FF11C0E6FF6FEC16F0E552E552010152
:10024000030E306F070EE66ECFEC16F0E552000994
:100250001DE001013951106E116AE80E1102F3CF51
:1002600011F0030E1002F3501126E80E1002F3CF26
:1002700010F0F4501126F3CFE6FF11C0E6FF6FEC4B
:1002800016F0E552E5520101010E306F0B0EE66EDD
:10029000CFEC16F0E55200091DE00101150E306F9C
:1002A00001013951106E116AE80E1102F3CF11F0FD
:1002B000030E1002F3501126E80E1002F3CF10F0D7
:1002C000F4501126F3CFE6FF11C0E6FF6FEC16F0F5
:1002D000E552E5520F016C5101E126D10AD19E0E83
:1002E000E66E3B0EE66EE66AE66AC3EC13F0E55294
:1002F000E552E552E552C00EE66E3B0EE66EE66A4A
:10030000010EE66EC3EC13F0E552E552E552E552FC
:100310000101316B0101326B030EE66ECFEC16F07A
:10032000E55200091DE001013951106E116AE80E15
:100330001102F3CF11F0030E1002F3501126E80E54
:100340001002F3CF10F0F4501126F3CFE6FF11C0E6
:10035000E6FF6FEC16F0E552E5520101040E306F36
:10036000070EE66ECFEC16F0E55200091DE0010124
:100370003951106E116AE80E1102F3CF11F0030E1D
:100380001002F3501126E80E1002F3CF10F0F450D3
:100390001126F3CFE6FF11C0E6FF6FEC16F0E55231
:1003A000E5520101020E306F0B0EE66ECFEC16F037
:1003B000E55200090BE001011F0E306FE80EE66EFA
:1003C000030EE66E6FEC16F0E552E5520F016C512C
:1003D00001E1AAD08ED08D0EE66E3B0EE66EE66A87
:1003E000E66AC3EC13F0E552E552E552E552C00E61
:1003F000E66E3B0EE66EE66A010EE66EC3EC13F0A7
:10040000E552E552E552E5520101316B0101326BD3
:10041000030EE66ECFEC16F0E55200091DE0010177
:100420003951106E116AE80E1102F3CF11F0030E6C
:100430001002F3501126E80E1002F3CF10F0F45022
:100440001126F3CFE6FF11C0E6FF6FEC16F0E55280
:10045000E5520101010E306F070EE66ECFEC16F08B
:10046000E55200091DE001013951106E116AE80ED4
:100470001102F3CF11F0030E1002F3501126E80E13
:100480001002F3CF10F0F4501126F3CFE6FF11C0A5
:10049000E6FF6FEC16F0E552E5520101030E306FF6
:1004A0000B0EE66ECFEC16F0E55200091FE00101DD
:1004B0003951106E116AE80E1102F3CF11F0030EDC
:1004C0001002F3501126E80E1002F3CF10F0F45092
:1004D0001126F3CFE6FF11C0E6FF6FEC16F0E552F0
:1004E000E5520101290E306F33C131F10F016C511A
:1004F0001BE0E80EE66E030EE66E6FEC16F0E552BA
:10050000E552D10EE66E3B0EE66EE66AE66AC3EC95
:1005100013F0E552E552E552E55201010B0E306F42
:1005200033C131F138C132F1A9EF16F00101305178
:100530001F0A01E1C7D0110A01E17DD0030A54E08E
:10054000010A2AE0070A01E01200D0EC19F04EEC93
:100550001AF00FEC1BF05BEC1BF00F016C0513E1C4
:10056000E80EE66E030EE66E6FEC16F0E552E5520D
:100570000101310701013207325105E136C132F183
:1005800001010C0E306F0B0EE66EECEC16F0E5522E
:10059000000901E195D077D0D0EC19F03CEC1AF0CD
:1005A0000FEC1BF05BEC1BF00F016C0515E1E80E86
:1005B000E66E030EE66E6FEC16F0E552E5520101B1
:1005C000310701013207325107E137C131F134C13E
:1005D00032F101010D0E306F0B0EE66EECEC16F0F1
:1005E000E55200096DE04FD0F1EC19F02BEC1AF058
:1005F0000FEC1BF05BEC1BF00F016C0514E1E80E37
:10060000E66E030EE66E6FEC16F0E552E552010160
:100610003107010132070101315105E135C131F1E5
:1006200001010E0E306F0B0EE66EECEC16F0E5528B
:10063000000946E028D0E0EC19F02BEC1AF00FECA2
:100640001BF05BEC1BF00F016C0516E1E80EE66E8B
:10065000030EE66E6FEC16F0E552E552010131072C
:10066000010132070101315107E133C131F138C1D4
:1006700032F101010B0E306F0B0EE66EECEC16F052
:10068000E55200091DE00101010E306F01013951F1
:10069000106E116AE80E1102F3CF11F0030E100272
:1006A000F3501126E80E1002F3CF10F0F45011268B
:1006B000F3CFE6FF11C0E6FF6FEC16F0E552E5520E
:1006C000A9EF16F00F016C510CE01BEC1AF07AEC5C
:1006D0001AF0E80EE66E030EE66E6FEC16F0E552C9
:1006E000E5520B0EE66EECEC16F0E55200091DE04B
:1006F00001013951106E116AE80E1102F3CF11F0A9
:10070000030E1002F3501126E80E1002F3CF10F082
:10071000F4501126F3CFE6FF11C0E6FF6FEC16F0A0
:10072000E552E5520101030E306F12000101305114
:10073000180A01E133D10F0A01E1C4D0010A56E0E1
:10074000030A01E012004CEC1BF098EC1BF0D0EC1B
:1007500019F04EEC1AF00F016C051BE1E80EE66E85
:10076000030EE66E6FEC16F0E552E55236C131F13C
:1007700036C132F1D10EE66E3B0EE66EE66AE66AEF
:10078000C3EC13F0E552E552E552E55201010C0EBF
:10079000306F030EE66ECFEC16F0E55200091DE057
:1007A00001013951106E116AE80E1102F3CF11F0F8
:1007B000030E1002F3501126E80E1002F3CF10F0D2
:1007C000F4501126F3CFE6FF11C0E6FF6FEC16F0F0
:1007D000E552E5520101160E306F0B0EE66EECECA1
:1007E00016F0E552000901E145D14ED0D0EC19F0E8
:1007F0003CEC1AF00F016C051BE1E80EE66E030EEF
:10080000E66E6FEC16F0E552E55237C131F134C1B6
:1008100032F1D10EE66E3B0EE66EE66AE66AC3EC96
:1008200013F0E552E552E552E55201010D0E306F2D
:10083000030EE66ECFEC16F0E55200091DE0010153
:100840003951106E116AE80E1102F3CF11F0030E48
:100850001002F3501126E80E1002F3CF10F0F450FE
:100860001126F3CFE6FF11C0E6FF6FEC16F0E5525C
:10087000E5520101170E306F0B0EE66EECEC16F030
:10088000E552000901E1F6D00101020E306F0101CD
:100890003951106E116AE80E1102F3CF11F0030EF8
:1008A0001002F3501126E80E1002F3CF10F0F450AE
:1008B0001126F3CFE6FF11C0E6FF6FEC16F0E5520C
:1008C000E5521200F1EC19F02BEC1AF00F016C0557
:1008D0001BE1E80EE66E030EE66E6FEC16F0E552D5
:1008E000E55235C131F136C132F1D10EE66E3B0E23
:1008F000E66EE66AE66AC3EC13F0E552E552E552AD
:10090000E55201010E0E306F030EE66ECFEC16F0CD
:10091000E55200091DE001013951106E116AE80E1F
:100920001102F3CF11F0030E1002F3501126E80E5E
:100930001002F3CF10F0F4501126F3CFE6FF11C0F0
:10094000E6FF6FEC16F0E552E5520101180E306F2C
:100950000B0EE66EECEC16F0E55200091DE001010D
:10096000020E306F01013951106E116AE80E11024A
:10097000F3CF11F0030E1002F3501126E80E10020F
:10098000F3CF10F0F4501126F3CFE6FF11C0E6FFCD
:100990006FEC16F0E552E552A9EF16F0E0EC19F015
:1009A0002BEC1AF00F016C051BE1E80EE66E030E4E
:1009B000E66E6FEC16F0E552E55233C131F138C105
:1009C00032F1D10EE66E3B0EE66EE66AE66AC3ECE5
:1009D00013F0E552E552E552E55201010B0E306F7E
:1009E000030EE66ECFEC16F0E55200091DE00101A2
:1009F0003951106E116AE80E1102F3CF11F0030E97
:100A00001002F3501126E80E1002F3CF10F0F4504C
:100A10001126F3CFE6FF11C0E6FF6FEC16F0E552AA
:100A2000E5520101150E306F0B0EE66EECEC16F080
:100A3000E55200091DE00101020E306F010139513C
:100A4000106E116AE80E1102F3CF11F0030E1002BE
:100A5000F3501126E80E1002F3CF10F0F4501126D7
:100A6000F3CFE6FF11C0E6FF6FEC16F0E552E5525A
:100A7000A9EC16F01200010130513D0A02E11FEF0E
:100A80000CF0010A02E11EEF0BF00C0A02E176EF16
:100A90000AF01E0A02E1CCEF09F0010A01E1D2D30B
:100AA000020A01E125D3010A01E15CD2060A01E153
:100AB00093D1010A01E1CAD0020A01E01200D0EC90
:100AC00019F00FEC1BF060EC1AF098EC1BF00F0122
:100AD0006C051BE1E80EE66E030EE66E6FEC16F099
:100AE000E552E55233C131F138C132F1D10EE66E33
:100AF0003B0EE66EE66AE66AC3EC13F0E552E55299
:100B0000E552E55201010B0E306F0B0EE66EECEC78
:100B100016F0E55200091DE001013951106E116A0D
:100B2000E80E1102F3CF11F0030E1002F35011265C
:100B3000E80E1002F3CF10F0F4501126F3CFE6FFC9
:100B400011C0E6FF6FEC16F0E552E5520101040E0C
:100B5000306F0B0EE66ECFEC16F0E552000925E083
:100B600001013951106E116AE80E1102F3CF11F034
:100B7000030E1002F3501126E80E1002F3CF10F00E
:100B8000F4501126F3CFE6FF11C0E6FF6FEC16F02C
:100B9000E552E552F40EE66E010EE66E8CEC16F0B0
:100BA000E552E55201012D0E306F030EE66ECFECDB
:100BB00016F0E552000921E001013951106E116A69
:100BC000E80E1102F3CF11F0030E1002F3501126BC
:100BD000E80E1002F3CF10F0F4501126F3CFE6FF29
:100BE00011C0E6FF6FEC16F0E552E5520101316BE2
:100BF00034C132F101012B0E306F070EE66ECFECDF
:100C000016F0E552000902E1DCEF0CF00101395168
:100C1000106E116AE80E1102F3CF11F0030E1002EC
:100C2000F3501126E80E1002F3CF10F0F450112605
:100C3000F3CFE6FF11C0E6FF6FEC16F0E552E55288
:100C40000101316B38C132F1D9EF0CF04CEC1BF0E3
:100C50005BEC1BF002EC1AF02BEC1AF00F016C05A8
:100C60001BE1E80EE66E030EE66E6FEC16F0E55241
:100C7000E55233C131F138C132F1D10EE66E3B0E8F
:100C8000E66EE66AE66AC3EC13F0E552E552E55219
:100C9000E55201010B0E306F0B0EE66EECEC16F018
:100CA000E55200091DE001013951106E116AE80E8C
:100CB0001102F3CF11F0030E1002F3501126E80ECB
:100CC0001002F3CF10F0F4501126F3CFE6FF11C05D
:100CD000E6FF6FEC16F0E552E5520101040E306FAD
:100CE0000B0EE66ECFEC16F0E552000925E001018F
:100CF0003951106E116AE80E1102F3CF11F0030E94
:100D00001002F3501126E80E1002F3CF10F0F45049
:100D10001126F3CFE6FF11C0E6FF6FEC16F0E552A7
:100D2000E552F40EE66E010EE66E8CEC16F0E5521E
:100D3000E55201012F0E306F030EE66ECFEC16F078
:100D4000E552000921E001013951106E116AE80EE7
:100D50001102F3CF11F0030E1002F3501126E80E2A
:100D60001002F3CF10F0F4501126F3CFE6FF11C0BC
:100D7000E6FF6FEC16F0E552E55237C131F10101A3
:100D8000326B01012A0E306F070EE66ECFEC16F0C3
:100D9000E552000902E1DCEF0CF001013951106E5F
:100DA000116AE80E1102F3CF11F0030E1002F35096
:100DB0001126E80E1002F3CF10F0F4501126F3CFF5
:100DC000E6FF11C0E6FF6FEC16F0E552E55233C1C5
:100DD00031F10101326B33D298EC1BF00FEC1BF0B8
:100DE000F1EC19F060EC1AF00F016C051BE1E80E54
:100DF000E66E030EE66E6FEC16F0E552E55233C177
:100E000031F138C132F1D10EE66E3B0EE66EE66A84
:100E1000E66AC3EC13F0E552E552E552E5520101F2
:100E20000B0E306F0B0EE66EECEC16F0E55200097F
:100E30001DE001013951106E116AE80E1102F3CF65
:100E400011F0030E1002F3501126E80E1002F3CF3A
:100E500010F0F4501126F3CFE6FF11C0E6FF6FEC5F
:100E600016F0E552E5520101040E306F0B0EE66EEE
:100E7000CFEC16F0E552000925E001013951106E62
:100E8000116AE80E1102F3CF11F0030E1002F350B5
:100E90001126E80E1002F3CF10F0F4501126F3CF14
:100EA000E6FF11C0E6FF6FEC16F0E552E552F40ED6
:100EB000E66E010EE66E8CEC16F0E552E55201018D
:100EC0002E0E306F030EE66ECFEC16F0E5520009E1
:100ED00021E001013951106E116AE80E1102F3CFC1
:100EE00011F0030E1002F3501126E80E1002F3CF9A
:100EF00010F0F4501126F3CFE6FF11C0E6FF6FECBF
:100F000016F0E552E5520101316B38C132F10101B1
:100F10002C0E306F070EE66ECFEC16F0E55200098E
:100F200002E1DCEF0CF001013951106E116AE80E9C
:100F30001102F3CF11F0030E1002F3501126E80E48
:100F40001002F3CF10F0F4501126F3CFE6FF11C0DA
:100F5000E6FF6FEC16F0E552E5520101316B34C14A
:100F600032F117D24CEC1BF05BEC1BF002EC1AF0E8
:100F70004EEC1AF00F016C051BE1E80EE66E030E55
:100F8000E66E6FEC16F0E552E55233C131F138C12F
:100F900032F1D10EE66E3B0EE66EE66AE66AC3EC0F
:100FA00013F0E552E552E552E55201010B0E306FA8
:100FB0000B0EE66EECEC16F0E55200091DE00101A7
:100FC0003951106E116AE80E1102F3CF11F0030EC1
:100FD0001002F3501126E80E1002F3CF10F0F45077
:100FE0001126F3CFE6FF11C0E6FF6FEC16F0E552D5
:100FF000E5520101040E306F0B0EE66ECFEC16F0D9
:10100000E552000925E001013951106E116AE80E20
:101010001102F3CF11F0030E1002F3501126E80E67
:101020001002F3CF10F0F4501126F3CFE6FF11C0F9
:10103000E6FF6FEC16F0E552E552F40EE66E010E97
:10104000E66E8CEC16F0E552E5520101300E306F81
:10105000030EE66ECFEC16F0E552000921E0010127
:101060003951106E116AE80E1102F3CF11F0030E20
:101070001002F3501126E80E1002F3CF10F0F450D6
:101080001126F3CFE6FF11C0E6FF6FEC16F0E55234
:10109000E55233C131F10101326B01013C0E306F79
:1010A000070EE66ECFEC16F0E552000902E1DCEF28
:1010B0000CF001013951106E116AE80E1102F3CFE4
:1010C00011F0030E1002F3501126E80E1002F3CFB8
:1010D00010F0F4501126F3CFE6FF11C0E6FF6FECDD
:1010E00016F0E552E55237C131F10101326BFBD107
:1010F0000FEC1BF00F016D510AE013EC1AF0F40E27
:10110000E66E010EE66E8CEC16F0E552E5520F012C
:101110006C051BE1E80EE66E030EE66E6FEC16F052
:10112000E552E55233C131F138C132F1D10EE66EEC
:101130003B0EE66EE66AE66AC3EC13F0E552E55252
:10114000E552E55201010B0E306F030EE66ECFEC57
:1011500016F0E552000921E001013951106E116AC3
:10116000E80E1102F3CF11F0030E1002F350112616
:10117000E80E1002F3CF10F0F4501126F3CFE6FF83
:1011800011C0E6FF6FEC16F0E552E5520101312B7C
:101190003151630802E20A0E316F070EE66ECFECA2
:1011A00016F0E552000921E001013951106E116A73
:1011B000E80E1102F3CF11F0030E1002F3501126C6
:1011C000E80E1002F3CF10F0F4501126F3CFE6FF33
:1011D00011C0E6FF6FEC16F0E552E5520101310750
:1011E0000A0E315D02E2630E316F0B0EE66EECEC1F
:1011F00016F0E552000901E1DFD301013951106E0B
:10120000116AE80E1102F3CF11F0030E1002F35031
:101210001126E80E1002F3CF10F0F4501126F3CF90
:10122000E6FF11C0E6FF6FEC16F0E552E55231C162
:1012300033F1010136510101335D0101386F0101C4
:10124000290EB9D35BEC1BF00F016D510AE072EC73
:101250001AF0F40EE66E010EE66E8CEC16F0E55216
:10126000E5520F016C051BE1E80EE66E030EE66E1B
:101270006FEC16F0E552E55233C131F138C132F16D
:10128000D10EE66E3B0EE66EE66AE66AC3EC13F03C
:10129000E552E552E552E55201010B0E306F030EA7
:1012A000E66ECFEC16F0E552000921E0010139515C
:1012B000106E116AE80E1102F3CF11F0030E100246
:1012C000F3501126E80E1002F3CF10F0F45011265F
:1012D000F3CFE6FF11C0E6FF6FEC16F0E552E552E2
:1012E0000101322B3251630802E20A0E326F070EFF
:1012F000E66ECFEC16F0E552000921E0010139510C
:10130000106E116AE80E1102F3CF11F0030E1002F5
:10131000F3501126E80E1002F3CF10F0F45011260E
:10132000F3CFE6FF11C0E6FF6FEC16F0E552E55291
:10133000010132070A0E325D02E2630E326F0B0EBC
:10134000E66EECEC16F0E552000901E135D301013F
:101350003951106E116AE80E1102F3CF11F0030E2D
:101360001002F3501126E80E1002F3CF10F0F450E3
:101370001126F3CFE6FF11C0E6FF6FEC16F0E55241
:10138000E55232C134F1010135510101345D0101F1
:10139000376F01012B0E0FD30FEC1BF00F016D51B6
:1013A0000AE023EC1AF0F40EE66E010EE66E8CEC09
:1013B00016F0E552E5520F016C051BE1E80EE66EF2
:1013C000030EE66E6FEC16F0E552E55233C131F1D3
:1013D00038C132F1D10EE66E3B0EE66EE66AE66A81
:1013E000C3EC13F0E552E552E552E55201010B0E54
:1013F000306F030EE66ECFEC16F0E552000921E0E7
:1014000001013951106E116AE80E1102F3CF11F08B
:10141000030E1002F3501126E80E1002F3CF10F065
:10142000F4501126F3CFE6FF11C0E6FF6FEC16F083
:10143000E552E5520101312B3151600802E2070EFD
:10144000316F070EE66ECFEC16F0E552000921E091
:1014500001013951106E116AE80E1102F3CF11F03B
:10146000030E1002F3501126E80E1002F3CF10F015
:10147000F4501126F3CFE6FF11C0E6FF6FEC16F033
:10148000E552E55201013107070E315D02E2600EBF
:10149000316F0B0EE66EECEC16F0E552000901E13F
:1014A0008BD201013951106E116AE80E1102F3CF8F
:1014B00011F0030E1002F3501126E80E1002F3CFC4
:1014C00010F0F4501126F3CFE6FF11C0E6FF6FECE9
:1014D00016F0E552E55231C137F1010137510101F2
:1014E00035250101346F01012A0E65D25BEC1BF03A
:1014F0000F016D510AE007EC1BF0F40EE66E010ED1
:10150000E66E8CEC16F0E552E5520F016C051BE11E
:10151000E80EE66E030EE66E6FEC16F0E552E5524D
:1015200033C131F138C132F1D10EE66E3B0EE66EB9
:10153000E66AE66AC3EC13F0E552E552E552E5527D
:1015400001010B0E306F030EE66ECFEC16F0E55284
:10155000000921E001013951106E116AE80E1102F3
:10156000F3CF11F0030E1002F3501126E80E100213
:10157000F3CF10F0F4501126F3CFE6FF11C0E6FFD1
:101580006FEC16F0E552E5520101322B3251600842
:1015900002E2070E326F070EE66ECFEC16F0E55250
:1015A000000921E001013951106E116AE80E1102A3
:1015B000F3CF11F0030E1002F3501126E80E1002C3
:1015C000F3CF10F0F4501126F3CFE6FF11C0E6FF81
:1015D0006FEC16F0E552E55201013207070E325D5D
:1015E00002E2600E326F0B0EE66EECEC16F0E55286
:1015F000000901E1E1D101013951106E116AE80ED3
:101600001102F3CF11F0030E1002F3501126E80E71
:101610001002F3CF10F0F4501126F3CFE6FF11C003
:10162000E6FF6FEC16F0E552E55232C138F10101E8
:101630003851010136250101336FFED04CEC1BF00F
:1016400098EC1BF002EC1AF060EC1AF0800EE66EDB
:101650003B0EE66EE66A010EE66EC3EC13F0E55251
:10166000E552E552E55282EC1AF00101316B0101BD
:10167000326B0F016C0528E1E80EE66E030EE66E94
:101680006FEC16F0E552E55233C131F138C132F159
:10169000D10EE66E3B0EE66EE66AE66AC3EC13F028
:1016A000E552E552E552E552C00EE66E3B0EE66E9F
:1016B000E66A010EE66EC3EC13F0E552E552E55220
:1016C000E55201010B0E306F0B0EE66EECEC16F0DE
:1016D000E55200091DE001013951106E116AE80E52
:1016E0001102F3CF11F0030E1002F3501126E80E91
:1016F0001002F3CF10F0F4501126F3CFE6FF11C023
:10170000E6FF6FEC16F0E552E5520101040E306F72
:101710000B0EE66ECFEC16F0E552000925E0010154
:101720003951106E116AE80E1102F3CF11F0030E59
:101730001002F3501126E80E1002F3CF10F0F4500F
:101740001126F3CFE6FF11C0E6FF6FEC16F0E5526D
:10175000E552F40EE66E010EE66E8CEC16F0E552E4
:10176000E55201013D0E306F030EE66ECFEC16F030
:10177000E55200092EE001013951106E116AE80EA0
:101780001102F3CF11F0030E1002F3501126E80EF0
:101790001002F3CF10F0F4501126F3CFE6FF11C082
:1017A000E6FF6FEC16F0E552E55233C131F101016D
:1017B000326BC00EE66E3B0EE66EE66A010EE66E1A
:1017C000C3EC13F0E552E552E552E5520101290E52
:1017D000306F070EE66ECFEC16F0E552000901E11E
:1017E000EBD001013951106E116AE80E1102F3CFEE
:1017F00011F0030E1002F3501126E80E1002F3CF81
:1018000010F0F4501126F3CFE6FF11C0E6FF6FECA5
:1018100016F0E552E5520101316B38C132F1C00ECC
:10182000E66E3B0EE66EE66A010EE66EC3EC13F062
:10183000E552E552E552E55201012C0EBCD082EC96
:101840001AF00F016D510AE0E2EC1AF0F40EE66EA8
:10185000010EE66E8CEC16F0E552E5520F016C05B8
:1018600028E1E80EE66E030EE66E6FEC16F0E55228
:10187000E55233C131F138C132F1D10EE66E3B0E83
:10188000E66EE66AE66AC3EC13F0E552E552E5520D
:10189000E552C00EE66E3B0EE66EE66A010EE66E9F
:1018A000C3EC13F0E552E552E552E55201010B0E8F
:1018B000306F030EE66ECFEC16F0E552000928E01B
:1018C00001013951106E116AE80E1102F3CF11F0C7
:1018D000030E1002F3501126E80E1002F3CF10F0A1
:1018E000F4501126F3CFE6FF11C0E6FF6FEC16F0BF
:1018F000E552E5520101392B3951106E116A11344C
:1019000007E21050B408000E115402E2140E396FB1
:10191000070EE66ECFEC16F0E552000921E001015A
:101920003951106E116AE80E1102F3CF11F0030E57
:101930001002F3501126E80E1002F3CF10F0F4500D
:101940001126F3CFE6FF11C0E6FF6FEC16F0E5526B
:10195000E55201013907140E395D02E2B40E396F08
:101960000B0EE66EECEC16F0E552000925E00101E5
:101970003951106E116AE80E1102F3CF11F0030E07
:101980001002F3501126E80E1002F3CF10F0F450BD
:101990001126F3CFE6FF11C0E6FF6FEC16F0E5521B
:1019A000E552F40EE66E010EE66E8CEC16F0E55292
:0C19B000E55201013C0E306FA9EF16F06B
:0419BC00D9CFE6FF9A
:1019C000E1CFD9FF040EE126DE6ADD6ADECF10F03A
:1019D000DDCF11F0126A136A11AE02D012681368DB
:1019E000D950FB0FE96EFF0EDA20EA6EEE50105C64
:1019F000EE501158EE501258EE5013581DE2020EE0
:101A0000DB6A030EDB6A020EDBCF10F0030EDBCFC6
:101A100011F0D890115004E6050E105C000E11581C
:101A200006E2020EDB2A030EEEE3DB2AECD7DF2A06
:101A3000010ECCE3DB2ACAD7040EE15C02E2E16AC4
:101A4000E552E16EE552E7CFD9FF1200D9CFE6FFAC
:101A5000E1CFD9FF040EE126DE6ADD6ADECF10F0A9
:101A6000DDCF11F0126A136A11AE02D0126813684A
:101A7000D950FB0FE96EFF0EDA20EA6EEE50105CD3
:101A8000EE501158EE501258EE5013581DE2020E4F
:101A9000DB6A030EDB6A020EDBCF10F0030EDBCF36
:101AA00011F0D890115004E6EE0E105C000E1158A3
:101AB00006E2020EDB2A030EEEE3DB2AECD7DF2A76
:101AC000010ECCE3DB2ACAD7040EE15C02E2E16A34
:101AD000E552E16EE552E7CFD9FF1200D9CFE6FF1C
:101AE000E1CFD9FF0F0E8116FE0EDB50F00B8112F5
:101AF0008186010EE66EE66AE66AE66AA7DFE552CF
:101B0000E552E552E5528196010EE66EE66AE66A16
:101B1000E66A9CDFE552E552E552E5520F0E81166A
:101B2000FE0EDB38F00B81128186010EE66EE66A4E
:101B3000E66AE66A8BDFE552E552E552E5528196A8
:101B4000010EE66EE66AE66AE66A80DFE552E55275
:101B5000E552E552E552E7CFD9FF1200D9CFE6FFB3
:101B6000E1CFD9FFE652190EE66EE66AE66AE66A4A
:101B70006DDFE552E552E552E5520F0E8116F80E83
:101B800081160F0E8116300E81128186010EE66ECF
:101B9000E66AE66AE66A5ADFE552E552E552E55240
:101BA0008196010EE66EE66AE66AE66A4FDFE55266
:101BB000E552E552E5520F0E8116300E81128186F4
:101BC000010EE66EE66AE66AE66A40DFE552E55235
:101BD000E552E5528196010EE66EE66AE66AE66A2D
:101BE00035DFE552E552E552E5520F0E8116300E13
:101BF00081128186010EE66EE66AE66AE66A26DFF3
:101C0000E552E552E552E5528196010EE66EE66A2E
:101C1000E66AE66A1BDFE552E552E552E5520F0E31
:101C20008116818A8186010EE66EE66AE66AE66AB8
:101C30000DDFE552E552E552E5528196010EE66E62
:101C4000E66AE66AE66A02DFE552E552E552E552E7
:101C5000280EE66E43DFE5520C0EE66E3FDFE552DE
:101C6000E552E552E7CFD9FF1200D9CFE6FFE1CF29
:101C7000D9FF020EE126DF6A010EDB6A81940F0EA6
:101C8000E66EE66AE66AE66A99DEE552E552E552F4
:101C9000E5520F0E81128186E66EE66AE66AE66A12
:101CA0008DDEE552E552E552E5520F0E8114E76EE6
:101CB000010EE7CFDBFF81960F0EE66EE66AE66A5D
:101CC000E66A7CDEE552E552E552E5520F0E8112DE
:101CD0008186E66EE66AE66AE66A70DEE552E552FD
:101CE000E552E5520F0E8114DF6E010EDB50DF125C
:101CF0008196010EE66EE66AE66AE66A5FDEE55206
:101D0000E552E552E552DF50106E020EE15C02E250
:101D1000E16AE552E16E1050E552E7CFD9FF1200BB
:101D2000D9CFE6FFE1CFD9FFE652DF6A9EDFDF6E53
:101D3000DFBEFCD7DF50E552E552E7CFD9FF1200F6
:101D4000D9CFE6FFE1CFD9FF0F0E8116FE0EDB5093
:101D500081128186050EE66EE66AE66AE66A2EDE86
:101D6000E552E552E552E5528196050EE66EE66AC9
:101D7000E66AE66A23DEE552E552E552E552E552AF
:101D8000E7CFD9FF1200D9CFE6FFE1CFD9FF819489
:101D9000050EE66EE66AE66AE66A10DEE552E55290
:101DA000E552E552FE0EDBCFE6FFCADFE552FE0E3E
:101DB000DB38F00BE66EC4DFE552E552E7CFD9FF22
:101DC0001200D9CFE6FFE1CFD9FF8184050EE66E80
:101DD000E66AE66AE66AF2DDE552E552E552E55268
:101DE000FE0EDBCFE6FFACDFE552FE0EDB38F00B7C
:101DF000E66EA6DFE5528194E552E7CFD9FF1200E7
:101E0000D9CFE6FFE1CFD9FFFE0EDBCFE6FFD9DF6A
:101E1000E552E552E7CFD9FF1200D9CFE6FFE1CF77
:101E2000D9FFFE0EDBCFE6FFCCDFE552E552E7CF70
:101E3000D9FF1200D9CFE6FFE1CFD9FFFD0EDBCFEE
:101E4000F6FFFE0EDBCFF7FF0800F5500FE0FD0EAA
:101E5000DBCFF6FFDB2AFE0EDBCFF7FF01E3DB2A49
:101E60000800F550E66ED9DFE552E8D7E552E7CF36
:101E7000D9FF1200D9CFE6FFE1CFD9FFE652FD0E20
:101E8000DB500F0B106EFE0EDB50010B400DF350BC
:101E90001024DF6E7F0EDF14800FDF6EDFCFE6FFD2
:101EA00072DFE552E552E552E7CFD9FF1200010E8D
:101EB000E66E69DFE552E66AE66ADCDFE552E55286
:101EC0001200D9CFE6FFE1CFD9FF050EE126010EC2
:101ED000F36EDB6E020EDB6A030EDB6A040EDB6A56
:101EE000DF6ADFCF10F0116A10BE1168FB0EDBCF86
:101EF00012F0FC0EDBCF13F011501318E8AE02D035
:101F0000133404D01250105C135011582DE2FD0E02
:101F1000DBCF10F0FE0EDBCF11F0126A136A11AEA8
:101F200002D012681368D950010FE96EDACFEAFFC8
:101F300010C00BF011C00CF012C00DF013C00EF069
:101F4000EECF06F0EECF07F0EECF08F0EFCF09F0BE
:101F5000F1EC1DF005C0EDFF04C0EDFF03C0EDFF87
:101F600002C0EFFFDF2ABDD7010EDBCF10F0020E5B
:101F7000DBCF11F0030EDBCF12F0040EDBCF13F03A
:101F800010C006F011C007F012C008F013C009F02D
:101F9000050EE15C02E2E16AE552E16EE552E7CF4F
:101FA000D9FF1200D9CFE6FFE1CFD9FF020EE1261B
:101FB000DF6AFB0EDBCF10F0FC0EDBCF11F0FD0E65
:101FC000DBCF12F0FE0EDBCF13F010501110121009
:101FD000131005E1300EE66E20DFE552F4D0D95043
:101FE000FB0FE96EFF0EDA20EA6ED890030EEB507D
:101FF000000A08E6000EEE5C000EEE58000EEE58E9
:10200000000EEE5815E22D0EE66E07DFE552D950B0
:10201000FB0FE96EFF0EDA20EA6E000EEE6CEF1E8B
:10202000EE22EF1EEE22EF1EEF22ED52ED52ED52A8
:10203000DE52070EDD6E010EDBCF10F0000EE76EF4
:102040001018E8AE02D0103403D0E750D8801054F6
:1020500001E3B9D0010EDB04146E156A14BE1568D5
:1020600014C0E6FF15C0E6FF0A0EE66EE66A29DF39
:10207000E552E552E552E55206C010F007C011F0F6
:1020800008C012F009C013F006C00BF007C00CF036
:1020900008C00DF009C00EF0FB0EDBCF06F0FC0E01
:1020A000DBCF07F0FD0EDBCF08F0FE0EDBCF09F033
:1020B00029EC1EF0065007100810091041E0010E2F
:1020C000DF6EDB04186E196A18BE196818C0E6FFC7
:1020D00019C0E6FF0A0EE66EE66AF3DEE552E55247
:1020E000E552E55206C014F007C015F008C016F01E
:1020F00009C017F006C00BF007C00CF008C00DF0C7
:1021000009C00EF0FB0EDBCF06F0FC0EDBCF07F0B4
:10211000FD0EDBCF08F0FE0EDBCF09F029EC1EF040
:1021200006C010F007C011F008C012F009C013F08B
:10213000300E1026000E112212221322105003D04E
:10214000DF5004E0300EE66E68DEE552010EDB047F
:10215000146E156A14BE156814C0E6FF15C0E6FFBC
:102160000A0EE66EE66AADDEE552E552E552E5524C
:1021700006C010F007C011F008C012F009C013F03B
:10218000D950FB0FE96EFF0EDA20EA6E06C00BF0A5
:1021900007C00CF008C00DF009C00EF0EECF06F03D
:1021A000EECF07F0EECF08F0EFCF09F029EC1EF0EC
:1021B00005C0EDFF04C0EDFF03C0EDFF02C0EFFF5F
:1021C000010EDB0638D7020EE15C02E2E16AE5525D
:1021D000E16EE552E7CFD9FF1200D9CFE6FFE1CF9C
:1021E000D9FFFD0EDBCFE6FFFE0EDBCFE6FF42DEC2
:1021F000E552E552D950F90FE96EFF0EDA20EA6E8A
:10220000EECFE6FFEECFE6FFEECFE6FFEFCFE6FF45
:10221000C9DEE552E552E552E552E552E7CFD9FF76
:102220001200D9CFE6FFE1CFD9FFFD0EDBCFE6FFED
:10223000FE0EDBCFE6FF1EDEE552E552FB0EDBCFE6
:10224000E6FFFC0EDBCFE6FFF5DDE552E552E55299
:10225000E7CFD9FF1200D9CFE6FFE1CFD9FF7CCF7E
:1022600010F07DCF11F0040ED89010361136E8062C
:10227000FBE1410E10260F0E112210500F017E259A
:10228000E96E11507F21EA6EFE0EDBCFEFFF7E2B51
:10229000000E7F23E552E7CFD9FF1200D9CFE6FF2A
:1022A000E1CFD9FFE652DF6ADFCF10F0100EE76E04
:1022B0001018E8AE02D0E73402D0E750105C18E204
:1022C000DFCFE9FFEA6AE9BEEA68410EE9260F0EB0
:1022D000EA22200EEF6EDFCFE9FFEA6AE9BEEA6884
:1022E000510EE9260F0EEA22200EEF6EDF2ADCD710
:1022F000E552E552E7CFD9FF1200D9CFE6FFE1CF93
:10230000D9FFE6520F014051030A52E0010A36E0BC
:10231000030A1AE0010A67E1E66AE66AABDDE55204
:10232000E552DF6A080EDF5C0CE2DF50EA6A410F1B
:10233000E96E0F0EEA22EF50E66E6FDDE552DF2AFE
:10234000F1D70F01010E32D0080EE66EE66A92DD7B
:10235000E552E552DF6A080EDF5C0DE2080EDF246D
:10236000EA6A410FE96E0F0EEA22EF50E66E55DD84
:10237000E552DF2AF0D70F01020E18D0E66A010EEF
:10238000E66E78DDE552E552DF6A080EDF5C0CE2AE
:10239000DF50EA6A510FE96E0F0EEA22EF50E66E47
:1023A0003CDDE552DF2AF1D70F01030E406F1CD050
:1023B000080EE66E010EE66E5DDDE552E552DF6A5F
:1023C000080EDF5C0DE2080EDF24EA6A510FE96EA9
:1023D0000F0EEA22EF50E66E20DDE552DF2AF0D73D
:1023E0000F01406B01D0406BE552E552E7CFD9FFBA
:1023F0001200D9CFE6FFE1CFD9FFE6520F014051DD
:10240000010A1BE0010A32E1E66AE66A33DDE552C1
:10241000E552DF6A100EDF5C0CE2DF50EA6A410F22
:10242000E96E0F0EEA22EF50E66EF7DCE552DF2A86
:10243000F1D70F01010E406F1AD0E66A010EE66E69
:1024400019DDE552E552DF6A100EDF5C0CE2DF5069
:10245000EA6A510FE96E0F0EEA22EF50E66EDDDCFC
:10246000E552DF2AF1D70F01406B01D0406BE552F6
:10247000E552E7CFD9FF1200D9CFE6FFE1CFD9FF70
:10248000E652E66AE66AF6DCE552E552DF6A100ECD
:10249000DF5C0CE2DF50EA6A410FE96E0F0EEA22C0
:1024A000EF50E66EBADCE552DF2AF1D7E66A010E9C
:1024B000E66EE0DCE552E552DF6A100EDF5C0CE20E
:1024C000DF50EA6A510FE96E0F0EEA22EF50E66E16
:1024D000A4DCE552DF2AF1D7E552E552E7CFD9FF78
:1024E0001200D9CFE6FFE1CFD9FFFE0EDB50010B82
:1024F0000F017C6F7D6BFD0EDB500F0B7E6F7F6BD2
:102500007CCF10F07DCF11F0040ED890103611362C
:10251000E806FBE1410E10260F0E112210500F01AC
:102520007E25E96E11507F21EA6EFC0EDBCFEFFFB6
:10253000E552E7CFD9FF1200D9CFE6FFE1CFD9FFAF
:10254000020EE126DF6AFE0EDB50010B0F017C6FED
:102550007D6BFD0EDB500F0B7E6F7F6BF90EDBCFBB
:1025600010F0FA0EDBCF11F0FB0EDBCF12F0FC0EF9
:10257000DBCF13F0105011101210131005E1300EC4
:10258000E66E69DEE552F5D0D950F90FE96EFF0E1F
:10259000DA20EA6ED890030EEB50000A08E6000E2F
:1025A000EE5C000EEE58000EEE58000EEE5815E2EE
:1025B0002D0EE66E50DEE552D950F90FE96EFF0E92
:1025C000DA20EA6E000EEE6CEF1EEE22EF1EEE2217
:1025D000EF1EEF22ED52ED52ED52DE52070EDD6E90
:1025E000010EDBCF10F0000EE76E1018E8AE02D03F
:1025F000103403D0E750D880105401E3BAD0010E54
:10260000DB04146E156A14BE156814C0E6FF15C00D
:10261000E6FF0A0EE66EE66A54DCE552E552E55244
:10262000E55206C010F007C011F008C012F009C052
:1026300013F006C00BF007C00CF008C00DF009C085
:102640000EF0F90EDBCF06F0FA0EDBCF07F0FB0E33
:10265000DBCF08F0FC0EDBCF09F029EC1EF00650B2
:1026600007100810091041E0010EDF6EDB04186E40
:10267000196A18BE196818C0E6FF19C0E6FF0A0EED
:10268000E66EE66A1EDCE552E552E552E55206C00A
:1026900014F007C015F008C016F009C017F006C006
:1026A0000BF007C00CF008C00DF009C00EF0F90ED9
:1026B000DBCF06F0FA0EDBCF07F0FB0EDBCF08F026
:1026C000FC0EDBCF09F029EC1EF006C010F007C0AD
:1026D00011F008C012F009C013F0300E1026000EE1
:1026E000112212221322105003D0DF5004E0300ECA
:1026F000E66EB1DDE552010EDB04146E156A14BE00
:10270000156814C0E6FF15C0E6FF0A0EE66EE66A1D
:1027100061EC0FF0E552E552E552E55206C010F0CB
:1027200007C011F008C012F009C013F0D950F90F1A
:10273000E96EFF0EDA20EA6E06C00BF007C00CF05F
:1027400008C00DF009C00EF0EECF06F0EECF07F096
:10275000EECF08F0EFCF09F029EC1EF005C0EDFF39
:1027600004C0EDFF03C0EDFF02C0EFFF010EDB066A
:1027700037D7020EE15C02E2E16AE552E16EE55212
:10278000E7CFD9FF1200D9CFE6FFE1CFD9FFFE0E88
:10279000DB50010B0F017C6F7D6BFD0EDB500F0BCF
:1027A0007E6F7F6BFB0EDBCFF6FFFC0EDBCFF7FF00
:1027B0000800F5500FE0FB0EDBCFF6FFDB2AFC0E26
:1027C000DBCFF7FF01E3DB2A0800F550E66E43DDBF
:0C27D000E552E8D7E552E7CFD9FF120030
:0427DC00D9CFE6FF6C
:1027E000E1CFD9FFD59EFD0EDBCF61FFFE0EDBCF23
:1027F00062FFD59C13681468156A61CF16F062CF2A
:1028000017F0186A1650135C106E17501458116E9A
:1028100018501558126E0C6A010E0D6E0E6A10C01B
:1028200007F011C008F012C009F02CEC1DF00350A5
:10283000D66E13681468156A61CF16F062CF17F070
:10284000186A1650135C106E17501458116E1850F9
:102850001558126E0C6A010E0D6E0E6A10C007F04C
:1028600011C008F012C009F02CEC1DF007C010F0E8
:1028700008C011F009C012F00750D76ED59AD5865E
:10288000F28AF294F184D58EE552E7CFD9FF120097
:10289000D59E120013681468156A61CF16F062CFD6
:1028A00017F0186A1650135C106E17501458116EFA
:1028B00018501558126E0C6A010E0D6E0E6A10C07B
:1028C00007F011C008F012C009F02CEC1DF0035005
:1028D000D66E13681468156A61CF16F062CF17F0D0
:1028E000186A1650135C106E17501458116E185059
:1028F0001558126E0C6A010E0D6E0E6A10C007F0AC
:1029000011C008F012C009F02CEC1DF007C010F047
:1029100008C011F009C012F00750D76ED58E120012
:10292000D9CFE6FFE1CFD9FFCD90FD0EDBCF63FF1E
:10293000FE0EDBCF64FF13681468156A63CF16F0D0
:1029400064CF17F0186A1650135C106E17501458A5
:10295000116E18501558126E0C6A010E0D6E0E6A2B
:1029600010C007F011C008F012C009F02CEC1DF0E7
:102970000750CF6E13681468156A63CF16F064CFE2
:1029800017F0186A1650135C106E17501458116E19
:1029900018501558126E0C6A010E0D6E0E6A10C09A
:1029A00007F011C008F012C009F02CEC1DF003C0B4
:1029B00010F004C011F005C012F00350CE6E9D80DF
:1029C0009E909F90CD8ECD8CCD98CD9ACD96CD9268
:1029D000CD80E552E7CFD9FF120013681468156A5D
:1029E00063CF16F064CF17F0186A1650135C106EA0
:1029F00017501458116E18501558126E0C6A010EAB
:102A00000D6E0E6A10C007F011C008F012C009F078
:102A10002CEC1DF00750CF6E13681468156A63CF55
:102A200016F064CF17F0186A1650135C106E17502A
:102A30001458116E18501558126E0C6A010E0D6E56
:102A40000E6A10C007F011C008F012C009F02CEC9B
:102A50001DF003C010F004C011F005C012F00350C7
:102A6000CE6ECD801200CD901200D9CFE6FFE1CF1F
:102A7000D9FFCA94CC6AFE0EDB500F01656F666BFE
:102A8000CB6E9D829E929F92CA90CA92CA84E55252
:102A9000E7CFD9FF120065CFCBFFCA841200CA94DA
:102AA0001200D9CFE6FFE1CFD9FFB190FD0EDBCF09
:102AB00067FFFE0EDBCF68FF13681468156A67CFE7
:102AC00016F068CF17F0186A1650135C106E175086
:102AD0001458116E18501558126E0C6A010E0D6EB6
:102AE0000E6A10C007F011C008F012C009F02CECFB
:102AF0001DF00750B36E13681468156A67CF16F09F
:102B000068CF17F0186A1650135C106E17501458DF
:102B1000116E18501558126E0C6A010E0D6E0E6A69
:102B200010C007F011C008F012C009F02CEC1DF025
:102B300003C010F004C011F005C012F00350B26ED3
:102B4000A082A192A292B18EB198B19AB192B180B5
:102B5000E552E7CFD9FF120013681468156A67CFF2
:102B600016F068CF17F0186A1650135C106E1750E5
:102B70001458116E18501558126E0C6A010E0D6E15
:102B80000E6A10C007F011C008F012C009F02CEC5A
:102B90001DF00350B26E13681468156A67CF16F003
:102BA00068CF17F0186A1650135C106E175014583F
:102BB000116E18501558126E0C6A010E0D6E0E6AC9
:102BC00010C007F011C008F012C009F02CEC1DF085
:102BD00007C010F008C011F009C012F00750B36E22
:102BE000B1801200B19012000F01000ED880725512
:102BF000000E735508E27207000E735B7251731179
:102C000002E1010E696F12000F01000ED8807455A9
:102C1000000E755508E27407000E755B745175114E
:102C200002E1010E6A6F12000F01000ED880765586
:102C3000000E775508E27607000E775B7651771124
:102C400002E1010E6B6F12000F01000ED880785563
:102C5000000E795508E27807000E795B78517911FA
:102C600002E1010E6C6F000ED8807A55000E7B5584
:102C700008E27A07000E7B5B7A517B1102E1010EBC
:102C80006D6F1200D9CFE6FFE1CFD9FFFD0EDBCF8C
:102C900072FFFE0EDBCF73FF0F01696BE552E7CFCA
:102CA000D9FF1200D9CFE6FFE1CFD9FFFD0EDBCF70
:102CB00074FFFE0EDBCF75FF020E0D6E0E6A74CF31
:102CC00008F075CF09F006EC1DF008C074FF09C0CC
:102CD00075FF0F016A6BE552E7CFD9FF1200D9CF1C
:102CE000E6FFE1CFD9FFFD0EDBCF78FFFE0EDBCF95
:102CF00079FF0A0E0D6E0E6A78CF08F079CF09F0D1
:102D000006EC1DF008C078FF09C079FF0F016C6B5D
:102D1000E552E7CFD9FF1200D9CFE6FFE1CFD9FFC7
:102D2000FD0EDBCF7AFFFE0EDBCF7BFF0A0E0D6EB2
:102D30000E6A7ACF08F07BCF09F006EC1DF008C0D0
:102D40007AFF09C07BFF0F016D6BE552E7CFD9FF1A
:022D500012006F
:0E2D5200D9CFE6FFE1CFD9FFE652DF6A100EBF
:102D6000DF5C18E2EA6ADF34FE0BEA36E96E800EB9
:102D7000E926000EEA22EE6AED6AEA6ADF34FE0B0B
:102D8000EA36E96EA00EE926000EEA22EE6AED6A46
:102D9000DF2AE5D7E552E552E7CFD9FF1200D9CFB8
:102DA000E6FFE1CFD9FFFE0EEA6ADB34FE0BEA361E
:102DB000E96E800EE926000EEA22010EEE1807E108
:102DC000ED5005E1C6DF0001010EEB6F01D0000EF2
:102DD000E552E7CFD9FF1200D9CFE6FFE1CFD9FF07
:102DE000FE0EEA6ADB34FE0BEA36E96EA00EE92637
:102DF000000EEA22010EEE1807E1ED5005E1A9DF11
:102E00000001010EEB6F01D0000EE552E7CFD9FFB4
:102E10001200D9CFE6FFE1CFD9FFFD0EDBCFE9FFEE
:102E2000FE0EDBCFEAFFC80EE926000EEA22EF50C5
:102E3000020A01E1B1D0020A01E195D0010A01E0E4
:102E400003D1FD0EDBCFE9FFFE0EDBCFEAFFD80E8C
:102E5000E926000EEA22EF2AFD0EDBCFE9FFFE0E87
:102E6000DBCFEAFF200EE926010EEA22EF0429E17A
:102E7000FD0EDBCFE9FFFE0EDBCFEAFF010ED8909F
:102E8000E936EA36E806FBE1800EE926000EEA2282
:102E9000010EEE6EED6AFD0EDBCFE9FFFE0EDBCF1D
:102EA000EAFFC80EE926000EEA22EF6AFD0EDBCF2C
:102EB000E9FFFE0EDBCFEAFFD80EE926000EEA227C
:102EC000EF6AFD0EDBCFE9FFFE0EDBCFEAFFD80E87
:102ED000E926000EEA22EF50106E116A960E1018C5
:102EE00001E0B2D0115001E0AFD0FD0EDBCFE9FF21
:102EF000FE0EDBCFEAFFC80EE926000EEA22020E24
:102F0000EF6EFD0EDBCFE9FFFE0EDBCFEAFF010E19
:102F1000D890E936EA36E806FBE1800EE926000E95
:102F2000EA22010EEE6EED6AFD0EDBCFE9FFFE0E2A
:102F3000DBCFEAFF010ED890E936EA36E806FBE17E
:102F4000A00EE926000EEA22010EEE6EED6AFD0EDD
:102F5000DBCFE9FFFE0EDBCFEAFFD80EE926000E3D
:102F6000EA22190E17D0FD0EDBCFE9FFFE0EDBCFF4
:102F7000EAFF200EE926010EEA22EF5065E1FD0E80
:102F8000DBCFE9FFFE0EDBCFEAFFC80EE926000E1D
:102F9000EA22010EEF6E58D0FD0EDBCFE9FFFE0EE8
:102FA000DBCFEAFFD80EE926000EEA22EF2AFD0E5B
:102FB000DBCFE9FFFE0EDBCFEAFF200EE926010E94
:102FC000EA22EF0416E1FD0EDBCFE9FFFE0EDBCFB8
:102FD000EAFFC80EE926000EEA22EF6AFD0EDBCFFB
:102FE000E9FFFE0EDBCFEAFFD80EE926000EEA224B
:102FF000EF6AFD0EDBCFE9FFFE0EDBCFEAFFD80E56
:10300000E926000EEA22EF5019081EE1FD0EDBCF83
:10301000E9FFFE0EDBCFEAFF010ED890E936EA3673
:10302000E806FBE1800EE926000EEA22010EEE6EB4
:10303000ED6AFD0EDBCFE9FFFE0EDBCFEAFFD80E17
:10304000E926000EEA22EF6AE552E7CFD9FF120027
:103050000F0E946E82681200D9CFE6FFE1CFD9FF40
:10306000040EE126DE6ADD6ADECF10F0DDCF11F05E
:10307000D890115004E6040E105C000E115801E3C4
:1030800005D1DECFE9FFDDCFEAFFC00EE926000E55
:10309000EA22EF1C826E020EDB6A030EDB6A020E6E
:1030A000DBCF10F0030EDBCF11F0D890115004E607
:1030B000040E105C000E115801E3E2D0DECF12F0D6
:1030C000DDCF13F0D89012361336D890123613365F
:1030D000020EDB501224E96E030EDB501320EA6E61
:1030E000100EE926010EEA22EF50E66EDECF10F058
:1030F000DDCF11F0D89010361136D8901036113639
:10310000020EDB501024E96E030EDB501120EA6E34
:10311000000EE926010EEA22E552E750EF6E020E9C
:10312000DBCF12F0DBCFE9FF030EDBCFEAFFC40EEB
:10313000E926000EEA22EF50821412C0E7FFE752A0
:1031400004E0E8427F0BE706FCE1E66EDECF10F01C
:10315000DDCF11F0D89010361136D89010361136D8
:10316000020EDB501024E96E030EDB501120EA6ED4
:10317000100EE926010EEA22E552E750EF6EDECF8F
:1031800011F0DDCF12F0D89011361236D8901136EA
:103190001236020EDB501124E96E030EDB501220B2
:1031A000EA6E000EE926010EEA22EFCF10F0DECF24
:1031B00013F0DDCF14F0D89013361436D8901336B0
:1031C0001436020EDB501324E96E030EDB5014207C
:1031D000EA6E100EE926010EEA22EF50105C49E17A
:1031E000DECF12F0DDCF13F0D89012361336D89020
:1031F00012361336020EDB501224E96E030EDB503A
:103200001320EA6E000EE926010EEA22EF50E66E68
:10321000DECF10F0DDCF11F0D89010361136D890F7
:1032200010361136020EDB501024E96E030EDB500F
:103230001120EA6E200EE926010EEA22E552E7503F
:10324000EF6EDECF12F0DDCF13F0D89012361336CA
:10325000D89012361336020EDB501224106E030E75
:10326000DB501320116E10C0E6FFE66ED2DDE55292
:10327000E552020EDB2A030E01E211D7DB2A0FD73B
:10328000DF2A010E01E2F0D6DB2AEED6040EE15C65
:1032900002E2E16AE552E16EE552E7CFD9FF1200A2
:1032A000816A12000001EB050DE1EB6B640EE66E26
:1032B0007AEC1EF0E552640EE66EE66A52EC16F009
:1032C000E552E5520F016A0504E1E66A7AEC1EF068
:1032D000E5521200D9CFE6FFE1CFD9FF000EF36E21
:1032E000FE0EDBCFF4FFF350F45C12E3080EF36E36
:1032F000FE0EDBCFF4FFF350F45C0AE2FE0EDB506F
:10330000EA6AEC0FE96E000EEA22EF508110816E3E
:10331000E552E7CFD9FF1200D9CFE6FFE1CFD9FFC1
:10332000000EF36EFE0EDBCFF4FFF350F45C12E3FD
:10333000080EF36EFE0EDBCFF4FFF350F45C0AE2EE
:10334000FE0EDB50EA6AEC0FE96E000EEA22EF1C7B
:103350008114816EE552E7CFD9FF1200D9CFE6FF85
:10336000E1CFD9FF000EF36EFE0EDBCFF4FFF3507A
:10337000F45C12E3080EF36EFE0EDBCFF4FFF350A5
:10338000F45C0AE2FE0EDB50EA6AEC0FE96E000E16
:10339000EA22EF508118816EE552E7CFD9FF120083
:1033A0007B0EE66E3B0EE66EE66A010EE66EC3EC41
:1033B00013F0E552E552E552E5520001E86B1200C8
:1033C000760EE66E3B0EE66EE66A010EE66EC3EC26
:1033D00013F0E552E552E552E5520001020EE86FA6
:1033E0001200710EE66E3B0EE66EE66A010EE66EA8
:1033F000C3EC13F0E552E552E552E5520001010E2F
:10340000E86F12006D0EE66E3B0EE66EE66A010E88
:10341000E66EC3EC13F0E552E552E552E5520001C9
:10342000030EE86F1200030E0001E85D02E002EFF8
:103430001AF0D0EF19F0030E0001E85D02E002EF90
:103440001AF0E0EF19F0030E0001E85D02E002EF70
:103450001AF0F1EF19F07B0EE66E3B0EE66E080EE9
:10346000E66E010EE66EC3EC13F0E552E552E5524E
:10347000E5520001E96B1200760EE66E3B0EE66E39
:10348000080EE66E010EE66EC3EC13F0E552E5524F
:10349000E552E5520001020EE96F1200710EE66E70
:1034A0003B0EE66E080EE66E010EE66EC3EC13F000
:1034B000E552E552E552E5520001010EE96F1200B6
:1034C0006D0EE66E3B0EE66E080EE66E010EE66EC3
:1034D000C3EC13F0E552E552E552E5520001030E4C
:1034E000E96F1200030E0001E95D02E060EF1AF0DF
:1034F0002BEF1AF0030E0001E95D02E060EF1AF015
:103500003CEF1AF0640E146E0E6E39C109F0B9EC7E
:103510001EF009C010F0116A126A136A09C0E6FFB2
:1035200011C0E6FF12C0E6FF13C0E6FF0D0EE66E07
:10353000010EE66E9CEC12F0156E060EE15E155063
:103540000A0E156E146E0E6E39C109F0B9EC1EF03C
:1035500015C00EF0B9EC1EF005C010F0116A126A29
:10356000136A05C0E6FF11C0E6FF12C0E6FF13C0F4
:10357000E6FF0E0EE66E010EE66E9CEC12F0166E85
:10358000060EE15E16500A0E146E0E6E39C109F079
:10359000B9EC1EF005C010F0116A126A136A05C07A
:1035A000E6FF11C0E6FF12C0E6FF13C0E6FF0F0EF4
:1035B000E66E010EE66E9CEC12F0156E060EE15EF4
:1035C00015501200030E0001EA5D10E0600EE66E79
:1035D0003B0EE66EE66A010EE66EC3EC13F0E552B2
:1035E000E552E552E5520001030E0FD0530EE66E90
:1035F0003B0EE66EE66A010EE66EC3EC13F0E55292
:10360000E552E552E5520001040EEA6F1200030E86
:103610000001E95D02E060EF1AF04EEF1AF00A0EC9
:10362000146E0E6E31C109F0B9EC1EF009C010F035
:10363000116A126A136A09C0E6FF11C0E6FF12C0E0
:10364000E6FF13C0E6FF040EE66E010EE66E9CEC8C
:1036500012F0156E060EE15E15500A0E146E0E6E17
:1036600031C109F0B9EC1EF005C010F0116A126A00
:10367000136A05C0E6FF11C0E6FF12C0E6FF13C0E3
:10368000E6FF050EE66E010EE66E9CEC12F0156E7E
:10369000060EE15E15501200500EE66E3B0EE66E11
:1036A000040EE66E010EE66EC3EC13F0E552E55231
:1036B000E552E55212000A0E146E0E6E32C109F088
:1036C000B9EC1EF009C010F0116A126A136A09C041
:1036D000E6FF11C0E6FF12C0E6FF13C0E6FF0C0EC6
:1036E000E66E010EE66E9CEC12F0156E060EE15EC3
:1036F00015500A0E146E0E6E32C109F0B9EC1EF0B0
:1037000005C010F0116A126A136A05C0E6FF11C005
:10371000E6FF12C0E6FF13C0E6FF0D0EE66E010ED7
:10372000E66E9CEC12F0156E060EE15E155012006E
:10373000500EE66E3B0EE66E0C0EE66E010EE66E69
:0E374000C3EC13F0E552E552E552E5521200DB
:02374E00F28EF9
:10375000D08EF28C1200F19CF292F2881200D8CF37
:10376000E4FFE0CFE4FFE46EDACFE4FFE2CFDAFF7C
:10377000E9CFE4FFEACFE4FFF6CFE4FFF7CFE4FFC1
:10378000F5CFE4FFF3CFE4FFF4CFE4FFFACFE4FF9B
:1037900000EE00F0100EE80403E3EECFE4FFFBD7E9
:1037A00000EE10F00A0EE80403E3EECFE4FFFBD7CF
:1037B000E652F2A407D048EC14F0F2944AEC14F06C
:1037C000F4EC15F09EA007D033EC15F09E90EDECD4
:1037D00014F004EC16F0A1A207D0F2EC15F0A192BF
:1037E000ACEC15F024EC16F0F2B2F2929EBA9E9A6E
:1037F000E55200EE19F00A0EE80403E3E5CFEDFF11
:10380000FBD700EE0FF0100EE80403E3E5CFEDFF69
:10381000FBD7E5CFFAFFE5CFF4FFE5CFF3FFE5CF28
:10382000F5FFE5CFF7FFE5CFF6FFE5CFEAFFE5CF00
:10383000E9FFE5CFDAFFE550E5CFE0FFE5CFD8FFC0
:103840001000DACFE4FFE2CFDAFFE9CFE4FFEACFFE
:10385000E4FFF6CFE4FFF7CFE4FFF5CFE4FFF3CFCB
:10386000E4FFF4CFE4FFFACFE4FF00EE00F0100E27
:10387000E80403E3EECFE4FFFBD700EE10F00A0EFE
:10388000E80403E3EECFE4FFFBD7E652F2A407D04F
:1038900048EC14F0F2944AEC14F0F4EC15F09EA00D
:1038A00007D033EC15F09E90EDEC14F004EC16F01C
:1038B000A1A209D0F2EC15F0A192ACEC15F02CEC21
:1038C00018F024EC16F0F2B2F2929EBA9E9AE552EB
:1038D00000EE19F00A0EE80403E3E5CFEDFFFBD795
:1038E00000EE0FF0100EE80403E3E5CFEDFFFBD789
:1038F000E5CFFAFFE5CFF4FFE5CFF3FFE5CFF5FF26
:10390000E5CFF7FFE5CFF6FFE5CFEAFFE5CFE9FF2B
:06391000E5CFDAFF110013
:0A3916000DD82EEC00F096EC02F044
:1039200096EC03F03BEC05F052EC19F07DEC11F055
:10393000F3D7936AAEEC0DF0A7EC1BF028EC18F06F
:103940006AEC1EF0570EE66E120EE66EEEEC13F009
:10395000E552E552AE0EE66E240EE66E90EC14F0E3
:10396000E552E552660EE66EB70EE66E51EC15F0C6
:10397000E552E552E80EE66E030EE66E03D8E55218
:10398000E5521200D9CFE6FFE1CFD9FF040EE126C0
:10399000DE6ADD6ADECF10F0DDCF11F0FD0EDBCF89
:1039A00012F0FE0EDBCF13F011501318E8AE02D068
:1039B000133404D01250105C135011581DE2020E43
:1039C000DB6A030EDB6A020EDBCF10F0030EDBCFE7
:1039D00011F0D890115004E6EE0E105C000E115854
:1039E00006E2020EDB2A030EEEE3DB2AECD7DF2A27
:1039F000010ED0E3DB2ACED7040EE15C02E2E16ADD
:0C3A0000E552E16EE552E7CFD9FF12005D
:043A0C00006A0EAE90
:103A10000FEF1DF00D6C0E1EE86A0E22001E09AE9F
:103A200017EF1DF0086C091EE86A0922001E85ECDC
:103A30001EF009BE27EF1DF000AE000C086C091E39
:103A4000E86A0922046C051EE86A0522000C00BE23
:103A50001EEF1DF00188FF0C006A0EAE37EF1DF05F
:103A60000C6C0D1E0E1EE86A0D220E22001E09AE01
:103A700041EF1DF0076C081E091EE86A08220922A2
:103A8000001E4DEC1EF009BE54EF1DF000AE000C00
:103A9000076C081E091EE86A08220922036C041E2E
:103AA000051E04220522000C00BE48EF1DF001880F
:023AB000FF0C09
:0E3AB2001E0EF66E000EF76E000EF86E00018E
:103AC0000900F550F96F0900F550FA6F03E1F96745
:103AD00001D03DD00900F550F46F0900F550F56FA5
:103AE0000900F550F66F09000900F550E96E09006C
:103AF000F550EA6E090009000900F550F76F09005A
:103B0000F550F86F09000900F6CFFBF0F7CFFCF095
:103B1000F8CFFDF0F4C0F6FFF5C0F7FFF6C0F8FFF0
:103B20000001F75302E1F85307E00900F550EE6E8B
:103B3000F707F8E2F807F9D7FBC0F6FFFCC0F7FF7C
:103B4000FDC0F8FF0001F907000EFA5BBFD71200B5
:103B500020200052455455524E204155544F3A00B2
:103B60002020202020202020202020200020202075
:103B70000047202020002059202000202052200033
:103B800052455455524E204155544F3A002020433F
:103B90004F4E464947204D4F44452020200020539A
:103BA0004C4F57444F574E204D4F44452020002046
:103BB000204D414E55414C204D4F44452020200082
:103BC00020202020202020202020202020202020F5
:103BD000002020204155544F204D4F4445202020A7
:023BE0002000C3
:0E3BE20006500B02F3CF02F0F4CF03F00C02FA
:103BF000F3500326000EF420046E06500D02F3501D
:103C00000426000EF420056E06500E02F350052621
:103C100007500B02F3500326F4500422000E052235
:103C200007500C02F3500426F450052207500D02F1
:103C3000F350052608500B02F3500426F4500522D9
:103C400008500C02F350052609500B02F3500526CC
:023C5000120060
:0E3C5200056A046A036A026A200EE76ED890C3
:103C60000636073608360936023603360436053678
:103C70000B50025C0C5003580D5004580E50055860
:103C800009E30B50025E0C50035A0D50045A0E50BB
:0A3C9000055A062AE72EE4D71200B9
:063C9A00056A046A036ADA
:103CA000180EE76ED8900736083609360336043604
:103CB00005360C50035C0D5004580E50055807E3B0
:103CC0000C50035E0D50045A0E50055A072AE72E79
:043CD000EAD712001D
:0C3CD400CA94CA90CA82CB68BD98BD9A01
:103CE000BE6ABD9CBD9EBD90BD92BD84BD869494B0
:103CF000CA841200D9CFE6FFE1CFD9FFFE0EDB5018
:0A3D0000BE6EE552E7CFD9FF1200B6
:063D0A00056A046A100EB8
:103D1000E76ED89008360936043605360D50045C37
:103D20000E50055805E30D50045E0E50055A082A42
:063D3000E72EF0D712009F
:0A3D3600800EF36E00EE00F00F0E99
:103D400001D81200EA6002D0EE6AFCD7F350E960B5
:063D50001200EE6AFCD730
:0A3D56001EEE00F02EEE00F0F86AF9
:103D6000019C59EC1DF003EC00F08BEC1CF0FBD730
:023D700012003F
:0E3D7200056A080EE76ED890093605360E5029
:0E3D8000055C02E3056E092AE72EF7D7120054
:023D8E00000033
:103D90000000000000000000000000000000000023
:093DA0000000000000000000001A
:073DA9000000000000000013
:103DB00000101010101010101018181818181818DB
:103DC000181C1C1C1C1C1C1C1C1E1E1E1E1E1E1E29
:103DD0001E1F1F1F1F1F1F1F1F00000000000000CD
:103DE00000000000000000000000000000000000D3
:103DF00000000000000000000000000000000000C3
:0A3E000000000000000000000000B8
:063E0A00030303000102A6
:063E1000040810204080B0
:0A3E160000000000000000000000A2
:103E20000000000000000000000000000000000092
:103E30000000000000000000000000000000000082
:103E40000000000000000000000000000000000072
:103E50000000000000001020408001020408000063
:103E60000000000000000000000000000000000052
:0E3E7000000000000000000000000000000044
:020000040030CA
:0100010002FC
:0100020003FA
:010003001EDE
:010005008179
:010006008178
:010008000FE8
:01000900C036
:01000A000FE6
:01000B00E014
:01000C000FE4
:01000D0040B2
:00000001FF
