:020000040000FA
:0600000013EF18F01200DE
:020006001200E6
:06000800BBEF15F0120031
:02000E000000F0
:07001000000A0A03030707C1
:0600180049EF15F0120093
:02001E000500DB
:10002000E43000008000000068000000DA300000CA
:10003000F20000000A0000000E0000003001000085
:100040000900000079300000000F0000610000008E
:0C0050005E300000610F00001B0000008B
:04005C00D9CFE6FF13
:10006000E1CFD9FF040EE126DE6ADD6ADECF10F0B3
:10007000DDCF11F0126A136A11AE02D01268136854
:10008000D950FB0FE96EFF0EDA20EA6EEE50105CDD
:10009000EE501158EE501258EE5013581DE2020E59
:1000A000DB6A030EDB6A020EDBCF10F0030EDBCF40
:1000B00011F0D890115004E6050E105C000E115896
:1000C00006E2020EDB2A030EEEE3DB2AECD7DF2A80
:1000D000010ECCE3DB2ACAD7040EE15C02E2E16A3E
:1000E000E552E16EE552E7CFD9FF1200D9CFE6FF26
:1000F000E1CFD9FF040EE126DE6ADD6ADECF10F023
:10010000DDCF11F0126A136A11AE02D012681368C3
:10011000D950FB0FE96EFF0EDA20EA6EEE50105C4C
:10012000EE501158EE501258EE5013581DE2020EC8
:10013000DB6A030EDB6A020EDBCF10F0030EDBCFAF
:1001400011F0D890115004E6EE0E105C000E11581C
:1001500006E2020EDB2A030EEEE3DB2AECD7DF2AEF
:10016000010ECCE3DB2ACAD7040EE15C02E2E16AAD
:10017000E552E16EE552E7CFD9FF1200D9CFE6FF95
:10018000E1CFD9FF0F0E8116FE0EDB50F00B81126E
:100190008186010EE66EE66AE66AE66AA7DFE55248
:1001A000E552E552E5528196010EE66EE66AE66A90
:1001B000E66A9CDFE552E552E552E5520F0E8116E4
:1001C000FE0EDB38F00B81128186010EE66EE66AC8
:1001D000E66AE66A8BDFE552E552E552E552819622
:1001E000010EE66EE66AE66AE66A80DFE552E552EF
:1001F000E552E552E552E7CFD9FF1200D9CFE6FF2D
:10020000E1CFD9FFE652190EE66EE66AE66AE66AC3
:100210006DDFE552E552E552E5520F0E8116F80EFC
:1002200081160F0E8116300E81128186010EE66E48
:10023000E66AE66AE66A5ADFE552E552E552E552B9
:100240008196010EE66EE66AE66AE66A4FDFE552DF
:10025000E552E552E5520F0E8116300E811281866D
:10026000010EE66EE66AE66AE66A40DFE552E552AE
:10027000E552E5528196010EE66EE66AE66AE66AA6
:1002800035DFE552E552E552E5520F0E8116300E8C
:1002900081128186010EE66EE66AE66AE66A26DF6C
:1002A000E552E552E552E5528196010EE66EE66AA8
:1002B000E66AE66A1BDFE552E552E552E5520F0EAB
:1002C0008116818A8186010EE66EE66AE66AE66A32
:1002D0000DDFE552E552E552E5528196010EE66EDC
:1002E000E66AE66AE66A02DFE552E552E552E55261
:1002F000280EE66E43DFE5520C0EE66E3FDFE55258
:10030000E552E552E7CFD9FF1200D9CFE6FFE1CFA2
:10031000D9FF020EE126DF6A010EDB6A81940F0E1F
:10032000E66EE66AE66AE66A99DEE552E552E5526D
:10033000E5520F0E81128186E66EE66AE66AE66A8B
:100340008DDEE552E552E552E5520F0E8114E76E5F
:10035000010EE7CFDBFF81960F0EE66EE66AE66AD6
:10036000E66A7CDEE552E552E552E5520F0E811257
:100370008186E66EE66AE66AE66A70DEE552E55276
:10038000E552E5520F0E8114DF6E010EDB50DF12D5
:100390008196010EE66EE66AE66AE66A5FDEE5527F
:1003A000E552E552E552DF50106E020EE15C02E2CA
:1003B000E16AE552E16E1050E552E7CFD9FF120035
:1003C000D9CFE6FFE1CFD9FFE652DF6A9EDFDF6ECD
:1003D000DFBEFCD7DF50E552E552E7CFD9FF120070
:1003E000D9CFE6FFE1CFD9FF0F0E8116FE0EDB500D
:1003F00081128186050EE66EE66AE66AE66A2EDE00
:10040000E552E552E552E5528196050EE66EE66A42
:10041000E66AE66A23DEE552E552E552E552E55228
:10042000E7CFD9FF1200D9CFE6FFE1CFD9FF819402
:10043000050EE66EE66AE66AE66A10DEE552E55209
:10044000E552E552FE0EDBCFE6FFCADFE552FE0EB7
:10045000DB38F00BE66EC4DFE552E552E7CFD9FF9B
:100460001200D9CFE6FFE1CFD9FF8184050EE66EF9
:10047000E66AE66AE66AF2DDE552E552E552E552E1
:10048000FE0EDBCFE6FFACDFE552FE0EDB38F00BF5
:10049000E66EA6DFE5528194E552E7CFD9FF120060
:1004A000D9CFE6FFE1CFD9FFFE0EDBCFE6FFD9DFE4
:1004B000E552E552E7CFD9FF1200D9CFE6FFE1CFF1
:1004C000D9FFFE0EDBCFE6FFCCDFE552E552E7CFEA
:1004D000D9FF1200D9CFE6FFE1CFD9FFFD0EDBCF68
:1004E000F6FFFE0EDBCFF7FF0800F5500FE0FD0E24
:1004F000DBCFF6FFDB2AFE0EDBCFF7FF01E3DB2AC3
:100500000800F550E66ED9DFE552E8D7E552E7CFAF
:10051000D9FF1200D9CFE6FFE1CFD9FFE652FD0E99
:10052000DB500F0B106EFE0EDB50010B400DF35035
:100530001024DF6E7F0EDF14800FDF6EDFCFE6FF4B
:1005400072DFE552E552E552E7CFD9FF1200010E06
:10055000E66E69DFE552E66AE66ADCDFE552E552FF
:100560001200D9CFE6FFE1CFD9FF050EE126010E3B
:10057000F36EDB6E020EDB6A030EDB6A040EDB6ACF
:10058000DF6ADFCF10F0116A10BE1168FB0EDBCFFF
:1005900012F0FC0EDBCF13F011501318E8AE02D0AE
:1005A000133404D01250105C135011582DE2FD0E7C
:1005B000DBCF10F0FE0EDBCF11F0126A136A11AE22
:1005C00002D012681368D950010FE96EDACFEAFF42
:1005D00010C00BF011C00CF012C00DF013C00EF0E3
:1005E000EECF06F0EECF07F0EECF08F0EFCF09F038
:1005F00040EC17F005C0EDFF04C0EDFF03C0EDFFB8
:1006000002C0EFFFDF2ABDD7010EDBCF10F0020ED4
:10061000DBCF11F0030EDBCF12F0040EDBCF13F0B3
:1006200010C006F011C007F012C008F013C009F0A6
:10063000050EE15C02E2E16AE552E16EE552E7CFC8
:10064000D9FF1200D9CFE6FFE1CFD9FF020EE12694
:10065000DF6AFB0EDBCF10F0FC0EDBCF11F0FD0EDE
:10066000DBCF12F0FE0EDBCF13F010501110121082
:10067000131005E1300EE66E20DFE552F4D0D950BC
:10068000FB0FE96EFF0EDA20EA6ED890030EEB50F6
:10069000000A08E6000EEE5C000EEE58000EEE5862
:1006A000000EEE5815E22D0EE66E07DFE552D9502A
:1006B000FB0FE96EFF0EDA20EA6E000EEE6CEF1E05
:1006C000EE22EF1EEE22EF1EEF22ED52ED52ED5222
:1006D000DE52070EDD6E010EDBCF10F0000EE76E6E
:1006E0001018E8AE02D0103403D0E750D880105470
:1006F00001E3B9D0010EDB04146E156A14BE15684F
:1007000014C0E6FF15C0E6FF0A0EE66EE66A29DFB2
:10071000E552E552E552E55206C010F007C011F06F
:1007200008C012F009C013F006C00BF007C00CF0AF
:1007300008C00DF009C00EF0FB0EDBCF06F0FC0E7A
:10074000DBCF07F0FD0EDBCF08F0FE0EDBCF09F0AC
:10075000ACEC17F0065007100810091041E0010E2C
:10076000DF6EDB04186E196A18BE196818C0E6FF40
:1007700019C0E6FF0A0EE66EE66AF3DEE552E552C0
:10078000E552E55206C014F007C015F008C016F097
:1007900009C017F006C00BF007C00CF008C00DF040
:1007A00009C00EF0FB0EDBCF06F0FC0EDBCF07F02E
:1007B000FD0EDBCF08F0FE0EDBCF09F0ACEC17F03E
:1007C00006C010F007C011F008C012F009C013F005
:1007D000300E1026000E112212221322105003D0C8
:1007E000DF5004E0300EE66E68DEE552010EDB04F9
:1007F000146E156A14BE156814C0E6FF15C0E6FF36
:100800000A0EE66EE66AADDEE552E552E552E552C5
:1008100006C010F007C011F008C012F009C013F0B4
:10082000D950FB0FE96EFF0EDA20EA6E06C00BF01E
:1008300007C00CF008C00DF009C00EF0EECF06F0B6
:10084000EECF07F0EECF08F0EFCF09F0ACEC17F0E9
:1008500005C0EDFF04C0EDFF03C0EDFF02C0EFFFD8
:10086000010EDB0638D7020EE15C02E2E16AE552D6
:10087000E16EE552E7CFD9FF1200D9CFE6FFE1CF15
:10088000D9FFFD0EDBCFE6FFFE0EDBCFE6FF42DE3B
:10089000E552E552D950F90FE96EFF0EDA20EA6E03
:1008A000EECFE6FFEECFE6FFEECFE6FFEFCFE6FFBF
:1008B000C9DEE552E552E552E552E552E7CFD9FFF0
:1008C0001200D9CFE6FFE1CFD9FFFD0EDBCFE6FF67
:1008D000FE0EDBCFE6FF1EDEE552E552FB0EDBCF60
:1008E000E6FFFC0EDBCFE6FFF5DDE552E552E55213
:1008F000E7CFD9FF1200D9CFE6FFE1CFD9FFFCC087
:1009000010F0FDC011F0040ED89010361136E80634
:10091000FBE1410E10260F0E112210500001FE25A2
:10092000E96E1150FF21EA6EFE0EDBCFEFFFFE2BCA
:10093000000EFF23E552E7CFD9FF1200D9CFE6FF23
:10094000E1CFD9FFE652DF6ADFCF10F0100EE76E7D
:100950001018E8AE02D0E73402D0E750105C18E27D
:10096000DFCFE9FFEA6AE9BEEA68410EE9260F0E29
:10097000EA22200EEF6EDFCFE9FFEA6AE9BEEA68FD
:10098000510EE9260F0EEA22200EEF6EDF2ADCD789
:10099000E552E552E7CFD9FF1200D9CFE6FFE1CF0C
:1009A000D9FFE6520F014051030A52E0010A36E036
:1009B000030A1AE0010A67E1E66AE66AABDDE5527E
:1009C000E552DF6A080EDF5C0CE2DF50EA6A410F95
:1009D000E96E0F0EEA22EF50E66E6FDDE552DF2A78
:1009E000F1D70F01010E32D0080EE66EE66A92DDF5
:1009F000E552E552DF6A080EDF5C0DE2080EDF24E7
:100A0000EA6A410FE96E0F0EEA22EF50E66E55DDFD
:100A1000E552DF2AF0D70F01020E18D0E66A010E68
:100A2000E66E78DDE552E552DF6A080EDF5C0CE227
:100A3000DF50EA6A510FE96E0F0EEA22EF50E66EC0
:100A40003CDDE552DF2AF1D70F01030E406F1CD0C9
:100A5000080EE66E010EE66E5DDDE552E552DF6AD8
:100A6000080EDF5C0DE2080EDF24EA6A510FE96E22
:100A70000F0EEA22EF50E66E20DDE552DF2AF0D7B6
:100A80000F01406B01D0406BE552E552E7CFD9FF33
:100A90001200D9CFE6FFE1CFD9FFE6520F01405156
:100AA000010A1BE0010A32E1E66AE66A33DDE5523B
:100AB000E552DF6A100EDF5C0CE2DF50EA6A410F9C
:100AC000E96E0F0EEA22EF50E66EF7DCE552DF2A00
:100AD000F1D70F01010E406F1AD0E66A010EE66EE3
:100AE00019DDE552E552DF6A100EDF5C0CE2DF50E3
:100AF000EA6A510FE96E0F0EEA22EF50E66EDDDC76
:100B0000E552DF2AF1D70F01406B01D0406BE5526F
:100B1000E552E7CFD9FF1200D9CFE6FFE1CFD9FFE9
:100B2000E652E66AE66AF6DCE552E552DF6A100E46
:100B3000DF5C0CE2DF50EA6A410FE96E0F0EEA2239
:100B4000EF50E66EBADCE552DF2AF1D7E66A010E15
:100B5000E66EE0DCE552E552DF6A100EDF5C0CE287
:100B6000DF50EA6A510FE96E0F0EEA22EF50E66E8F
:100B7000A4DCE552DF2AF1D7E552E552E7CFD9FFF1
:100B80001200D9CFE6FFE1CFD9FFFE0EDB50010BFB
:100B90000001FC6FFD6BFD0EDB500F0BFE6FFF6B5A
:100BA000FCC010F0FDC011F0040ED89010361136C4
:100BB000E806FBE1410E10260F0E11221050000135
:100BC000FE25E96E1150FF21EA6EFC0EDBCFEFFF30
:100BD000E552E7CFD9FF1200D9CFE6FFE1CFD9FF29
:100BE000020EE126DF6AFE0EDB50010B0001FC6FF6
:100BF000FD6BFD0EDB500F0BFE6FFF6BF90EDBCFB5
:100C000010F0FA0EDBCF11F0FB0EDBCF12F0FC0E72
:100C1000DBCF13F0105011101210131005E1300E3D
:100C2000E66E69DEE552F5D0D950F90FE96EFF0E98
:100C3000DA20EA6ED890030EEB50000A08E6000EA8
:100C4000EE5C000EEE58000EEE58000EEE5815E267
:100C50002D0EE66E50DEE552D950F90FE96EFF0E0B
:100C6000DA20EA6E000EEE6CEF1EEE22EF1EEE2290
:100C7000EF1EEF22ED52ED52ED52DE52070EDD6E09
:100C8000010EDBCF10F0000EE76E1018E8AE02D0B8
:100C9000103403D0E750D880105401E3BAD0010ECD
:100CA000DB04146E156A14BE156814C0E6FF15C087
:100CB000E6FF0A0EE66EE66A54DCE552E552E552BE
:100CC000E55206C010F007C011F008C012F009C0CC
:100CD00013F006C00BF007C00CF008C00DF009C0FF
:100CE0000EF0F90EDBCF06F0FA0EDBCF07F0FB0EAD
:100CF000DBCF08F0FC0EDBCF09F0ACEC17F00650B0
:100D000007100810091041E0010EDF6EDB04186EB9
:100D1000196A18BE196818C0E6FF19C0E6FF0A0E66
:100D2000E66EE66A1EDCE552E552E552E55206C083
:100D300014F007C015F008C016F009C017F006C07F
:100D40000BF007C00CF008C00DF009C00EF0F90E52
:100D5000DBCF06F0FA0EDBCF07F0FB0EDBCF08F09F
:100D6000FC0EDBCF09F0ACEC17F006C010F007C0AA
:100D700011F008C012F009C013F0300E1026000E5A
:100D8000112212221322105003D0DF5004E0300E43
:100D9000E66EB1DDE552010EDB04146E156A14BE79
:100DA000156814C0E6FF15C0E6FF0A0EE66EE66A97
:100DB000B1EC02F0E552E552E552E55206C010F002
:100DC00007C011F008C012F009C013F0D950F90F94
:100DD000E96EFF0EDA20EA6E06C00BF007C00CF0D9
:100DE00008C00DF009C00EF0EECF06F0EECF07F010
:100DF000EECF08F0EFCF09F0ACEC17F005C0EDFF37
:100E000004C0EDFF03C0EDFF02C0EFFF010EDB06E3
:100E100037D7020EE15C02E2E16AE552E16EE5528B
:100E2000E7CFD9FF1200D9CFE6FFE1CFD9FFFE0E01
:100E3000DB50010B0001FC6FFD6BFD0EDB500F0B57
:100E4000FE6FFF6BFB0EDBCFF6FFFC0EDBCFF7FF79
:100E50000800F5500FE0FB0EDBCFF6FFDB2AFC0E9F
:100E6000DBCFF7FF01E3DB2A0800F550E66E43DD38
:0C0E7000E552E8D7E552E7CFD9FF1200A9
:040E7C0001013051EF
:100E8000040A01E126D1070A01E1CCD0010A72E08F
:100E9000030A0EE0010A01E01200010E306F200E7D
:100EA000E66E4E0EE66EB4EC10F0E552E55212001E
:100EB000470EE66E2F0EE66EE66AE66A13EC07F062
:100EC000E552E552E552E552360EE66E2F0EE66E1D
:100ED000E66A010EE66E13EC07F0E552E552E552C4
:100EE000E5520101316B0101326B030EE66E14EC29
:100EF00011F0E55200090BE0200EE66E4E0EE66E94
:100F0000B4EC10F0E552E5520101020E306F070E0D
:100F1000E66E14EC11F0E55200090BE0200EE66ECF
:100F20004E0EE66EB4EC10F0E552E5520101040EEF
:100F3000306F0B0EE66E14EC11F0E55200090FE075
:100F4000E80EE66E030EE66EB4EC10F0E552E552E4
:100F500001010B0E306F33C131F138C132F10F0195
:100F60006C5101E129D1E80EE66E030EE66EB4EC99
:100F700010F019D1250EE66E2F0EE66EE66AE66ACF
:100F800013EC07F0E552E552E552E552360EE66EF7
:100F90002F0EE66EE66A010EE66E13EC07F0E552E0
:100FA000E552E552E5520101316B0101326B030E4E
:100FB000E66E14EC11F0E55200090BE0200EE66E2F
:100FC0004E0EE66EB4EC10F0E552E5520101030E50
:100FD000306F070EE66E14EC11F0E55200090BE0DD
:100FE000200EE66E4E0EE66EB4EC10F0E552E552C1
:100FF0000101010E306F0B0EE66E14EC11F0E5529C
:1010000000090BE00101150E306F200EE66E4E0E4A
:10101000E66EB4EC10F0E552E5520F016C5101E1BF
:10102000CBD0AFD0140EE66E2F0EE66EE66AE66AFF
:1010300013EC07F0E552E552E552E552360EE66E46
:101040002F0EE66EE66A010EE66E13EC07F0E5522F
:10105000E552E552E5520101316B0101326B030E9D
:10106000E66E14EC11F0E55200090BE0200EE66E7E
:101070004E0EE66EB4EC10F0E552E5520101040E9E
:10108000306F070EE66E14EC11F0E55200090BE02C
:10109000200EE66E4E0EE66EB4EC10F0E552E55210
:1010A0000101020E306F0B0EE66E14EC11F0E552EA
:1010B00000090BE001011F0E306FE80EE66E030E13
:1010C000E66EB4EC10F0E552E5520F016C5174E09D
:1010D00058D0030EE66E2F0EE66EE66AE66A13EC53
:1010E00007F0E552E552E552E552360EE66E2F0E58
:1010F000E66EE66A010EE66E13EC07F0E552E55285
:10110000E552E5520101316B0101326B030EE66ECF
:1011100014EC11F0E55200090BE0200EE66E4E0EC5
:10112000E66EB4EC10F0E552E5520101010E306FAD
:10113000070EE66E14EC11F0E55200090BE0200EEC
:10114000E66E4E0EE66EB4EC10F0E552E55201018B
:10115000030E306F0B0EE66E14EC11F0E552000931
:101160000DE0200EE66E4E0EE66EB4EC10F0E55289
:10117000E5520101290E306F33C131F10F016C517D
:101180001BE0E80EE66E030EE66EB4EC10F0E552DE
:10119000E552470EE66E2F0EE66EE66AE66A13EC3F
:1011A00007F0E552E552E552E55201010B0E306FB2
:1011B00033C131F138C132F1EEEF10F0010130519D
:1011C0001F0A01E1A4D0110A71E0030A4CE0010AF0
:1011D00026E0070A01E01200EAEC13F068EC14F0D4
:1011E0000F016C0513E1E80EE66E030EE66EB4EC3B
:1011F00010F0E552E5520101310701013207325189
:1012000005E136C132F101010C0E306F0B0EE66EB6
:101210002FEC11F0E552000901E177D06BD0EAEC38
:1012200013F056EC14F00F016C0515E1E80EE66EB4
:10123000030EE66EB4EC10F0E552E5520101310701
:1012400001013207325107E137C131F134C132F1C6
:1012500001010D0E306F0B0EE66E2FEC11F0E55212
:10126000000953E047D00BEC14F045EC14F00F01EB
:101270006C0514E1E80EE66E030EE66EB4EC10F0B9
:10128000E552E552010131070101320701013151F7
:1012900005E135C131F101010E0E306F0B0EE66E26
:1012A0002FEC11F0E552000930E024D0FAEC13F0F5
:1012B00045EC14F00F016C0516E1E80EE66E030E26
:1012C000E66EB4EC10F0E552E55201013107010180
:1012D00032070101315107E133C131F138C132F137
:1012E00001010B0E306F0B0EE66E2FEC11F0E55284
:1012F00000090BE00101010E306F200EE66E4E0E6C
:10130000E66EB4EC10F0E552E552EEEF10F00F018E
:101310006C510CE035EC14F094EC14F0E80EE66E31
:10132000030EE66EB4EC10F0E552E5520B0EE66EDD
:101330002FEC11F0E55200090BE0200EE66E4E0E88
:10134000E66EB4EC10F0E552E5520101030E306F89
:10135000120001013051180A01E1D5D00F0A01E154
:101360008AD0010A40E0030A01E01200EAEC13F01F
:1013700068EC14F00F016C051BE1E80EE66E030E3D
:10138000E66EB4EC10F0E552E55236C131F136C1EB
:1013900032F1470EE66E2F0EE66EE66AE66A13EC51
:1013A00007F0E552E552E552E55201010C0E306FAF
:1013B000030EE66E14EC11F0E55200090BE0200E6E
:1013C000E66E4E0EE66EB4EC10F0E552E552010109
:1013D000160E306F0B0EE66E2FEC11F0E552000981
:1013E00001E1D9D03CD0EAEC13F056EC14F00F0137
:1013F0006C051BE1E80EE66E030EE66EB4EC10F031
:10140000E552E55237C131F134C132F1470EE66E93
:101410002F0EE66EE66AE66A13EC07F0E552E55237
:10142000E552E55201010D0E306F030EE66E14EC2D
:1014300011F0E55200090BE0200EE66E4E0EE66E4E
:10144000B4EC10F0E552E5520101170E306F0B0EAF
:10145000E66E2FEC11F0E552000901E19CD001018C
:10146000020E306F200EE66E4E0EE66EB4EC10F0FB
:10147000E552E55212000BEC14F045EC14F00F01AC
:101480006C051BE1E80EE66E030EE66EB4EC10F0A0
:10149000E552E55235C131F136C132F1470EE66E03
:1014A0002F0EE66EE66AE66A13EC07F0E552E552A7
:1014B000E552E55201010E0E306F030EE66E14EC9C
:1014C00011F0E55200090BE0200EE66E4E0EE66EBE
:1014D000B4EC10F0E552E5520101180E306F0B0E1E
:1014E000E66E2FEC11F0E55200090BE00101020E4F
:1014F000306F200EE66E4E0EE66EB4EC10F0E55244
:10150000E552EEEF10F0FAEC13F045EC14F00F0199
:101510006C051BE1E80EE66E030EE66EB4EC10F00F
:10152000E552E55233C131F138C132F1470EE66E72
:101530002F0EE66EE66AE66A13EC07F0E552E55216
:10154000E552E55201010B0E306F030EE66E14EC0E
:1015500011F0E55200090BE0200EE66E4E0EE66E2D
:10156000B4EC10F0E552E5520101150E306F0B0E90
:10157000E66E2FEC11F0E55200090BE00101020EBE
:10158000306F200EE66E4E0EE66EB4EC10F0E552B3
:10159000E552EEEC10F0120001013051300A01E189
:1015A00006D31E0A01E1AAD2010A01E14DD2020AC4
:1015B00001E1F0D1010A01E174D1060A01E1F8D09C
:1015C000010A01E17CD0020A01E01200EAEC13F00A
:1015D0007AEC14F00F016C051BE1E80EE66E030EC9
:1015E000E66EB4EC10F0E552E55233C131F138C18A
:1015F00032F1470EE66E2F0EE66EE66AE66A13ECEF
:1016000007F0E552E552E552E55201010B0E306F4D
:101610000B0EE66E2FEC11F0E55200090BE0200EE8
:10162000E66E4E0EE66EB4EC10F0E552E5520101A6
:10163000040E306F0B0EE66E14EC11F0E55200094B
:1016400013E0200EE66E4E0EE66EB4EC10F0E5529E
:10165000E552F40EE66E010EE66ED1EC10F0E552A6
:10166000E55201012D0E306F030EE66E14EC11F001
:10167000E55200090FE0200EE66E4E0EE66EB4EC69
:1016800010F0E552E5520101316B34C132F1010134
:101690002B0E306F070EE66E14EC11F0E5520009C8
:1016A00001E1DFD2200EE66E4E0EE66EB4EC10F0D5
:1016B000E552E5520101316B38C132F1CFD21CEC59
:1016C00014F045EC14F00F016C051BE1E80EE66E1A
:1016D000030EE66EB4EC10F0E552E55233C131F181
:1016E00038C132F1470EE66E2F0EE66EE66AE66A04
:1016F00013EC07F0E552E552E552E55201010B0EFD
:10170000306F0B0EE66E2FEC11F0E55200090BE086
:10171000200EE66E4E0EE66EB4EC10F0E552E55289
:101720000101040E306F0B0EE66E14EC11F0E55261
:10173000000913E0200EE66E4E0EE66EB4EC10F0DB
:10174000E552E552F40EE66E010EE66ED1EC10F0B5
:10175000E552E55201012F0E306F030EE66E14ECD8
:1017600011F0E55200090FE0200EE66E4E0EE66E17
:10177000B4EC10F0E552E55237C131F10101326BA2
:1017800001012A0E306F070EE66E14EC11F0E552DF
:10179000000901E166D2200EE66E4E0EE66EB4EC54
:1017A00010F0E552E55233C131F10101326B49D1FC
:1017B0000BEC14F07AEC14F00F016C051BE1E80E51
:1017C000E66E030EE66EB4EC10F0E552E55233C15E
:1017D00031F138C132F1470EE66E2F0EE66EE66A41
:1017E000E66A13EC07F0E552E552E552E5520101D5
:1017F0000B0E306F0B0EE66E2FEC11F0E552000968
:101800000BE0200EE66E4E0EE66EB4EC10F0E552E4
:10181000E5520101040E306F0B0EE66E14EC11F070
:10182000E552000913E0200EE66E4E0EE66EB4ECB3
:1018300010F0E552E552F40EE66E010EE66ED1ECC4
:1018400010F0E552E55201012E0E306F030EE66EE8
:1018500014EC11F0E55200090FE0200EE66E4E0E7A
:10186000E66EB4EC10F0E552E5520101316B38C17F
:1018700032F101012C0E306F070EE66E14EC11F000
:10188000E552000901E1EDD1200EE66E4E0EE66E46
:10189000B4EC10F0E552E5520101316B34C132F184
:1018A0002AD11CEC14F068EC14F00F016C051BE15C
:1018B000E80EE66E030EE66EB4EC10F0E552E5526B
:1018C00033C131F138C132F1470EE66E2F0EE66EAC
:1018D000E66AE66A13EC07F0E552E552E552E55296
:1018E00001010B0E306F0B0EE66E2FEC11F0E5527E
:1018F00000090BE0200EE66E4E0EE66EB4EC10F022
:10190000E552E5520101040E306F0B0EE66E14EC49
:1019100011F0E552000913E0200EE66E4E0EE66E61
:10192000B4EC10F0E552E552F40EE66E010EE66EF0
:10193000D1EC10F0E552E5520101300E306F030E8C
:10194000E66E14EC11F0E55200090FE0200EE66E91
:101950004E0EE66EB4EC10F0E552E55233C131F1B3
:101960000101326B0101290E306F070EE66E14EC97
:1019700011F0E552000901E174D1200EE66E4E0E21
:10198000E66EB4EC10F0E552E55237C131F10101D9
:10199000326B0AD10F016D510AE02DEC14F0F40EF8
:1019A000E66E010EE66ED1EC10F0E552E5520F0145
:1019B0006C051BE1E80EE66E030EE66EB4EC10F06B
:1019C000E552E55233C131F138C132F1470EE66ECE
:1019D0002F0EE66EE66AE66A13EC07F0E552E55272
:1019E000E552E55201010B0E306F030EE66E14EC6A
:1019F00011F0E552000907E00101312B3151630874
:101A000002E20A0E316F070EE66E14EC11F0E55299
:101A1000000907E0010131070A0E315D02E2630EA1
:101A2000316F0B0EE66E2FEC11F0E552000901E16B
:101A300018D131C133F1010136510101335D01018A
:101A4000386F0101290E0CD10F016D510AE08CECA9
:101A500014F0F40EE66E010EE66ED1EC10F0E552D5
:101A6000E5520F016C051BE1E80EE66E030EE66E13
:101A7000B4EC10F0E552E55233C131F138C132F126
:101A8000470EE66E2F0EE66EE66AE66A13EC07F086
:101A9000E552E552E552E55201010B0E306F030E9F
:101AA000E66E14EC11F0E552000907E00101322B5B
:101AB0003251630802E20A0E326F070EE66E14EC32
:101AC00011F0E552000907E0010132070A0E325D0C
:101AD00002E2630E326F0B0EE66E2FEC11F0E55250
:101AE000000901E1BED032C134F1010135510101DB
:101AF000345D0101376F01012B0EB2D00F016D5122
:101B00000AE03DEC14F0F40EE66E010EE66ED1EC48
:101B100010F0E552E5520F016C051BE1E80EE66E90
:101B2000030EE66EB4EC10F0E552E55233C131F12C
:101B300038C132F1470EE66E2F0EE66EE66AE66AAF
:101B400013EC07F0E552E552E552E55201010B0EA8
:101B5000306F030EE66E14EC11F0E552000907E059
:101B60000101312B3151630802E2070E316F070E7C
:101B7000E66E14EC11F0E552000907E001013107AF
:101B8000070E315D02E2630E316F0B0EE66E2FEC35
:101B900011F0E552000965E031C137F1010137511B
:101BA000010135250101346F01012A0E59D00F01C1
:101BB0006D510AE09CEC14F0F40EE66E010EE66E38
:101BC000D1EC10F0E552E5520F016C051BE1E80E77
:101BD000E66E030EE66EB4EC10F0E552E55233C14A
:101BE00031F138C132F1470EE66E2F0EE66EE66A2D
:101BF000E66A13EC07F0E552E552E552E5520101C1
:101C00000B0E306F030EE66E14EC11F0E552000976
:101C100008E00101322B01013151630802E2070E95
:101C2000316F070EE66E14EC11F0E552000907E083
:101C300001013207070E325D02E2630E326F0B0EB6
:101C4000E66E2FEC11F0E55200090BE032C138F1DD
:101C500001013851010136250101336F01012C0EBC
:061C6000306FEEEF10F002
:0A1C6600D9CFE6FFE1CFD9FFD59EEC
:101C7000FD0EDBCF61FFFE0EDBCF62FFD59C13684C
:101C80001468156A61CF16F062CF17F0186A165003
:101C9000135C106E17501458116E18501558126EB0
:101CA0000C6A010E0D6E0E6A10C007F011C008F02C
:101CB00012C009F0C4EC16F00350D66E1368146815
:101CC000156A61CF16F062CF17F0186A1650135CD0
:101CD000106E17501458116E18501558126E0C6A69
:101CE000010E0D6E0E6A10C007F011C008F012C090
:101CF00009F0C4EC16F007C010F008C011F009C0DC
:101D000012F00750D76ED59AD586F28AF294F184F4
:101D1000D58EE552E7CFD9FF1200D59E1200136889
:101D20001468156A61CF16F062CF17F0186A165062
:101D3000135C106E17501458116E18501558126E0F
:101D40000C6A010E0D6E0E6A10C007F011C008F08B
:101D500012C009F0C4EC16F00350D66E1368146874
:101D6000156A61CF16F062CF17F0186A1650135C2F
:101D7000106E17501458116E18501558126E0C6AC8
:101D8000010E0D6E0E6A10C007F011C008F012C0EF
:101D900009F0C4EC16F007C010F008C011F009C03B
:101DA00012F00750D76ED58E1200D9CFE6FFE1CFE3
:101DB000D9FFCD90FD0EDBCF63FFFE0EDBCF64FFBE
:101DC00013681468156A63CF16F064CF17F0186AA9
:101DD0001650135C106E17501458116E1850155889
:101DE000126E0C6A010E0D6E0E6A10C007F011C063
:101DF00008F012C009F0C4EC16F00750CF6E13685B
:101E00001468156A63CF16F064CF17F0186A16507D
:101E1000135C106E17501458116E18501558126E2E
:101E20000C6A010E0D6E0E6A10C007F011C008F0AA
:101E300012C009F0C4EC16F003C010F004C011F099
:101E400005C012F00350CE6E9D809E909F90CD8E67
:101E5000CD8CCD98CD9ACD96CD92CD80E552E7CF61
:101E6000D9FF120013681468156A63CF16F064CFA7
:101E700017F0186A1650135C106E17501458116E34
:101E800018501558126E0C6A010E0D6E0E6A10C0B5
:101E900007F011C008F012C009F0C4EC16F00750AA
:101EA000CF6E13681468156A63CF16F064CF17F00D
:101EB000186A1650135C106E17501458116E185093
:101EC0001558126E0C6A010E0D6E0E6A10C007F0E6
:101ED00011C008F012C009F0C4EC16F003C010F0F5
:101EE00004C011F005C012F00350CE6ECD80120078
:101EF000CD901200D9CFE6FFE1CFD9FFCA94CC6ACA
:101F0000FE0EDB500F01656F666BCB6E9D829E925D
:101F10009F92CA90CA92CA84E552E7CFD9FF1200B5
:101F200065CFCBFFCA841200CA941200D9CFE6FF56
:101F3000E1CFD9FFB190FD0EDBCF67FFFE0EDBCF07
:101F400068FF13681468156A67CF16F068CF17F03A
:101F5000186A1650135C106E17501458116E1850F2
:101F60001558126E0C6A010E0D6E0E6A10C007F045
:101F700011C008F012C009F0C4EC16F00750B36E9F
:101F800013681468156A67CF16F068CF17F0186ADF
:101F90001650135C106E17501458116E18501558C7
:101FA000126E0C6A010E0D6E0E6A10C007F011C0A1
:101FB00008F012C009F0C4EC16F003C010F004C021
:101FC00011F005C012F00350B26EA082A192A2924D
:101FD000B18EB198B19AB192B180E552E7CFD9FFF5
:101FE000120013681468156A67CF16F068CF17F0EF
:101FF000186A1650135C106E17501458116E185052
:102000001558126E0C6A010E0D6E0E6A10C007F0A4
:1020100011C008F012C009F0C4EC16F00350B26E03
:1020200013681468156A67CF16F068CF17F0186A3E
:102030001650135C106E17501458116E1850155826
:10204000126E0C6A010E0D6E0E6A10C007F011C000
:1020500008F012C009F0C4EC16F007C010F008C078
:1020600011F009C012F00750B36EB1801200B190A8
:1020700012000F01000ED8807255000E735508E251
:102080007207000E735B7251731102E1010E696FEA
:1020900012000F01000ED8807455000E755508E22D
:1020A0007407000E755B7451751102E1010E6A6FC1
:1020B00012000F01000ED8807655000E775508E209
:1020C0007607000E775B7651771102E1010E6B6F98
:1020D00012000F01000ED8807855000E795508E2E5
:1020E0007807000E795B7851791102E1010E6C6F6F
:1020F000000ED8807A55000E7B5508E27A07000E54
:102100007B5B7A517B1102E1010E6D6F1200D9CF1A
:10211000E6FFE1CFD9FFFD0EDBCF72FFFE0EDBCF76
:1021200073FF0F01696BE552E7CFD9FF1200D9CFDA
:10213000E6FFE1CFD9FFFD0EDBCF74FFFE0EDBCF54
:1021400075FF020E0D6E0E6A74CF08F075CF09F0A0
:102150009EEC16F008C074FF09C075FF0F016A6B92
:10216000E552E7CFD9FF1200D9CFE6FFE1CFD9FF83
:10217000FD0EDBCF78FFFE0EDBCF79FF0A0E0D6E72
:102180000E6A78CF08F079CF09F09EEC16F008C0FF
:1021900078FF09C079FF0F016C6BE552E7CFD9FFDB
:1021A0001200D9CFE6FFE1CFD9FFFD0EDBCF7AFFDA
:1021B000FE0EDBCF7BFF0A0E0D6E0E6A7ACF08F0A3
:1021C0007BCF09F09EEC16F008C07AFF09C07BFFB8
:0C21D0000F016D6BE552E7CFD9FF120044
:0421DC00D9CFE6FF72
:1021E000E1CFD9FFE652DF6A100EDF5C18E2EA6A3F
:1021F000DF34FE0BEA36E96E800EE926000EEA2295
:10220000EE6AED6AEA6ADF34FE0BEA36E96EA00E8A
:10221000E926000EEA22EE6AED6ADF2AE5D7E552EA
:10222000E552E7CFD9FF1200D9CFE6FFE1CFD9FFC2
:10223000FE0EEA6ADB34FE0BEA36E96E800EE92612
:10224000000EEA22010EEE1805E1ED5003E1C6DFB3
:10225000010E01D0000EE552E7CFD9FF1200D9CF11
:10226000E6FFE1CFD9FFFE0EEA6ADB34FE0BEA3669
:10227000E96EA00EE926000EEA22010EEE1805E135
:10228000ED5003E1ABDF010E01D0000EE552E7CFC8
:10229000D9FF1200D9CFE6FFE1CFD9FFFD0EDBCF8A
:1022A000E9FFFE0EDBCFEAFFC80EE926000EEA22A8
:1022B000EF50020A01E1A2D0020A01E186D0010A30
:1022C00001E0F4D0FD0EDBCFE9FFFE0EDBCFEAFF2D
:1022D000D80EE926000EEA22EF2AFD0EDBCFE9FF39
:1022E000FE0EDBCFEAFF200EE926010EEA22EF0404
:1022F00029E1FD0EDBCFE9FFFE0EDBCFEAFF010E89
:10230000D890E936EA36E806FBE1800EE926000EB1
:10231000EA22010EEE6EED6AFD0EDBCFE9FFFE0E46
:10232000DBCFEAFFC80EE926000EEA22EF6AFD0EB7
:10233000DBCFE9FFFE0EDBCFEAFFD80EE926000E69
:10234000EA22EF6AFD0EDBCFE9FFFE0EDBCFEAFFEC
:10235000D80EE926000EEA22EF50106E116A960E92
:10236000101801E0A3D0115001E0A0D0FD0EDBCF8A
:10237000E9FFFE0EDBCFEAFFC80EE926000EEA22D7
:10238000020EEF6EFD0EDBCFE9FFFE0EDBCFEAFFA4
:10239000010ED890E936EA36E806FBE1800EE92620
:1023A000000EEA22010EEE6EED6AFD0EDBCFE9FFB4
:1023B000FE0EDBCFEAFF010ED890E936EA36E806DA
:1023C000FBE1A00EE926000E62D0FD0EDBCFE9FF97
:1023D000FE0EDBCFEAFF200EE926010EEA22EF50C7
:1023E00065E1FD0EDBCFE9FFFE0EDBCFEAFFC80E95
:1023F000E926000EEA22010EEF6E58D0FD0EDBCF6B
:10240000E9FFFE0EDBCFEAFFD80EE926000EEA2236
:10241000EF2AFD0EDBCFE9FFFE0EDBCFEAFF200E39
:10242000E926010EEA22EF0416E1FD0EDBCFE9FFFB
:10243000FE0EDBCFEAFFC80EE926000EEA22EF6AA5
:10244000FD0EDBCFE9FFFE0EDBCFEAFFD80EE9265B
:10245000000EEA22EF6AFD0EDBCFE9FFFE0EDBCFB6
:10246000EAFFD80EE926000EEA22EF5032081EE1FC
:10247000FD0EDBCFE9FFFE0EDBCFEAFF010ED890A9
:10248000E936EA36E806FBE1800EE926000EEA228C
:10249000010EEE6EED6AFD0EDBCFE9FFFE0EDBCF27
:1024A000EAFFD80EE926000EEA22EF6AE552E7CFEE
:1024B000D9FF12000F0E946E82681200D9CFE6FF8A
:1024C000E1CFD9FF040EE126DE6ADD6ADECF10F02F
:1024D000DDCF11F0D890115004E6040E105C000E10
:1024E000115801E305D1DECFE9FFDDCFEAFFC00ED1
:1024F000E926000EEA22EF1C826E020EDB6A030E52
:10250000DB6A020EDBCF10F0030EDBCF11F0D890A8
:10251000115004E6040E105C000E115801E3E2D0E5
:10252000DECF12F0DDCF13F0D89012361336D890EC
:1025300012361336020EDB501224E96E030EDB5006
:102540001320EA6E100EE926010EEA22EF50E66E25
:10255000DECF10F0DDCF11F0D89010361136D890C4
:1025600010361136020EDB501024E96E030EDB50DC
:102570001120EA6E000EE926010EEA22E552E7502C
:10258000EF6E020EDBCF12F0DBCFE9FF030EDBCFE5
:10259000EAFFC40EE926000EEA22EF50821412C0B0
:1025A000E7FFE75204E0E8427F0BE706FCE1E66E56
:1025B000DECF10F0DDCF11F0D89010361136D89064
:1025C00010361136020EDB501024E96E030EDB507C
:1025D0001120EA6E100EE926010EEA22E552E750BC
:1025E000EF6EDECF11F0DDCF12F0D890113612363B
:1025F000D89011361236020EDB501124E96E030E0C
:10260000DB501220EA6E000EE926010EEA22EFCF1F
:1026100010F0DECF13F0DDCF14F0D890133614365F
:10262000D89013361436020EDB501324E96E030ED5
:10263000DB501420EA6E100EE926010EEA22EF505C
:10264000105C49E1DECF12F0DDCF13F0D8901236E6
:102650001336D89012361336020EDB501224E96E70
:10266000030EDB501320EA6E000EE926010EEA226B
:10267000EF50E66EDECF10F0DDCF11F0D8901036BF
:102680001136D89010361136020EDB501024E96E48
:10269000030EDB501120EA6E200EE926010EEA221D
:1026A000E552E750EF6EDECF12F0DDCF13F0D89099
:1026B00012361336D89012361336020EDB5012241F
:1026C000106E030EDB501320116E10C0E6FFE66E95
:1026D000E1DDE552E552020EDB2A030E01E211D7DD
:1026E000DB2A0FD7DF2A010E01E2F0D6DB2AEED675
:1026F000040EE15C02E2E16AE552E16EE552E7CFE9
:04270000D9FF1200EB
:0C270400816A1200D9CFE6FFE1CFD9FFB7
:10271000000EF36EFE0EDBCFF4FFF350F45C12E319
:10272000080EF36EFE0EDBCFF4FFF350F45C0AE20A
:10273000FE0EDB50EA6AF40FE96E000EEA22EF505B
:102740008110816EE552E7CFD9FF1200D9CFE6FFA5
:10275000E1CFD9FF000EF36EFE0EDBCFF4FFF35096
:10276000F45C12E3080EF36EFE0EDBCFF4FFF350C1
:10277000F45C0AE2FE0EDB50EA6AF40FE96E000E2A
:10278000EA22EF1C8114816EE552E7CFD9FF1200D7
:10279000D9CFE6FFE1CFD9FF000EF36EFE0EDBCFFF
:1027A000F4FFF350F45C12E3080EF36EFE0EDBCF81
:1027B000F4FFF350F45C0AE2FE0EDB50EA6AF40F19
:1027C000E96E000EEA22EF508118816EE552E7CFE4
:1027D000D9FF1200FF0EE66E2E0EE66EE66A010EBF
:1027E000E66E13EC07F0E552E552E552E5520001C2
:1027F000F26B1200FB0EE66E2E0EE66EE66A010E1E
:10280000E66E13EC07F0E552E552E552E5520001A1
:10281000020EF26F1200F70EE66E2E0EE66EE66AFC
:10282000010EE66E13EC07F0E552E552E552E55273
:102830000001010EF26F1200F30EE66E2E0EE66E30
:10284000E66A010EE66E13EC07F0E552E552E5523A
:10285000E5520001030EF26F1200030E0001F25D5B
:1028600002E01CEF14F0EAEF13F0030E0001F25D3A
:1028700002E01CEF14F0FAEF13F0030E0001F25D1A
:1028800002E01CEF14F00BEF14F0FF0EE66E2E0EBC
:10289000E66E080EE66E010EE66E13EC07F0E552EA
:1028A000E552E552E5520001F36B1200FB0EE66EB5
:1028B0002E0EE66E080EE66E010EE66E13EC07F0C5
:1028C000E552E552E552E5520001020EF36F1200A7
:1028D000F70EE66E2E0EE66E080EE66E010EE66E42
:1028E00013EC07F0E552E552E552E5520001010E06
:1028F000F36F1200F30EE66E2E0EE66E080EE66E15
:10290000010EE66E13EC07F0E552E552E552E55292
:102910000001030EF36F1200030E0001F35D02E0ED
:102920007AEF14F045EF14F0030E0001F35D02E0BE
:102930007AEF14F056EF14F0030E0001F35D02E09D
:102940007AEF14F068EF14F0010131513DE00A0E06
:10295000146E0E6E31C109F021EC18F009C010F0B0
:10296000116A126A136A09C0E6FF11C0E6FF12C0BD
:10297000E6FF13C0E6FF040EE66E010EE66EECEC19
:1029800005F0156E060EE15E15500A0E146E0E6E01
:1029900031C109F021EC18F005C010F0116A126A7B
:1029A000136A05C0E6FF11C0E6FF12C0E6FF13C0C0
:1029B000E6FF050EE66E010EE66EECEC05F0156E18
:1029C000060EE15E15500ED0F00EE66E2E0EE66E8F
:1029D000040EE66E010EE66E13EC07F0E552E552CA
:1029E000E552E552010132513DE00A0E146E0E6EC1
:1029F00032C109F021EC18F009C010F0116A126A16
:102A0000136A09C0E6FF11C0E6FF12C0E6FF13C05B
:102A1000E6FF0C0EE66E010EE66EECEC05F0156EB0
:102A2000060EE15E15500A0E146E0E6E32C109F0EC
:102A300021EC18F005C010F0116A126A136A05C083
:102A4000E6FF11C0E6FF12C0E6FF13C0E6FF0D0E61
:102A5000E66E010EE66EECEC05F0156E060EE15E1C
:102A600015501200F00EE66E2E0EE66E0C0EE66E9F
:102A7000010EE66E13EC07F0E552E552E552E55221
:022A8000120042
:0E2A8200F28ED08EF28C1200F19CF292F2884D
:102A90001200D8CFE4FFE0CFE4FFE46EDACFE4FF2A
:102AA000E2CFDAFFE9CFE4FFEACFE4FFF6CFE4FFBD
:102AB000F7CFE4FFF5CFE4FFF3CFE4FFF4CFE4FF7B
:102AC000FACFE4FF00EE00F0100EE80403E3EECFCF
:102AD000E4FFFBD700EE10F00A0EE80403E3EECFAC
:102AE000E4FFFBD7E652F2A407D08DEC0EF0F2948F
:102AF0008FEC0EF039EC10F09EA007D078EC0FF0C0
:102B00009E9032EC0FF049EC10F0A1A207D037EC08
:102B100010F0A192F1EC0FF069EC10F0F2B2F29229
:102B20009EBA9E9AE55200EE19F00A0EE80403E3FD
:102B3000E5CFEDFFFBD700EE0FF0100EE80403E346
:102B4000E5CFEDFFFBD7E5CFFAFFE5CFF4FFE5CF0B
:102B5000F3FFE5CFF5FFE5CFF7FFE5CFF6FFE5CFD4
:102B6000EAFFE5CFE9FFE5CFDAFFE550E5CFE0FF8B
:102B7000E5CFD8FF1000DACFE4FFE2CFDAFFE9CFEC
:102B8000E4FFEACFE4FFF6CFE4FFF7CFE4FFF5CFB1
:102B9000E4FFF3CFE4FFF4CFE4FFFACFE4FF00EE6D
:102BA00000F0100EE80403E3EECFE4FFFBD700EEE5
:102BB00010F00A0EE80403E3EECFE4FFFBD7E65281
:102BC000F2A407D08DEC0EF0F2948FEC0EF039ECFD
:102BD00010F09EA007D078EC0FF09E9032EC0FF032
:102BE00049EC10F0A1A209D037EC10F0A192F1EC61
:102BF0000FF05EEC12F069EC10F0F2B2F2929EBAB5
:102C00009E9AE55200EE19F00A0EE80403E3E5CFC0
:102C1000EDFFFBD700EE0FF0100EE80403E3E5CF65
:102C2000EDFFFBD7E5CFFAFFE5CFF4FFE5CFF3FFEC
:102C3000E5CFF5FFE5CFF7FFE5CFF6FFE5CFEAFFFC
:0A2C4000E5CFE9FFE5CFDAFF110050
:062C4A000DD83EEC07F07E
:102C5000DEEC08F0A9EC09F0CCEC0AF0A4EC14F0DE
:102C6000CDEC04F0F3D7936AFEEC00F041EC15F0E4
:102C70005AEC12F0570EE66E120EE66E33EC0EF0C2
:102C8000E552E552AE0EE66E240EE66ED5EC0EF081
:102C9000E552E552660EE66EB70EE66E96EC0FF064
:102CA000E552E552E80EE66E030EE66E03D8E552F5
:102CB000E5521200D9CFE6FFE1CFD9FF040EE1269D
:102CC000DE6ADD6ADECF10F0DDCF11F0FD0EDBCF66
:102CD00012F0FE0EDBCF13F011501318E8AE02D045
:102CE000133404D01250105C135011581DE2020E20
:102CF000DB6A030EDB6A020EDBCF10F0030EDBCFC4
:102D000011F0D890115004E6EE0E105C000E115830
:102D100006E2020EDB2A030EEEE3DB2AECD7DF2A03
:102D2000010ED0E3DB2ACED7040EE15C02E2E16AB9
:0C2D3000E552E16EE552E7CFD9FF12003A
:042D3C00006A0EAE6D
:102D4000A7EF16F00D6C0E1EE86A0E22001E09AEEB
:102D5000AFEF16F0086C091EE86A0922001EEDECC0
:102D600017F009BEBFEF16F000AE000C086C091E8C
:102D7000E86A0922046C051EE86A0522000C00BE00
:102D8000B6EF16F00188FF0C006A0EAECFEF16F01A
:102D90000C6C0D1E0E1EE86A0D220E22001E09AEDE
:102DA000D9EF16F0076C081E091EE86A08220922EE
:102DB000001ED0EC17F009BEECEF16F000AE000CD0
:102DC000076C081E091EE86A08220922036C041E0B
:102DD000051E04220522000C00BEE0EF16F001885B
:022DE000FF0CE6
:0E2DE2001E0EF66E000EF76E000EF86E00016B
:102DF0000900F550ED6F0900F550EE6F03E1ED6746
:102E000001D03DD00900F550E86F0900F550E96F99
:102E10000900F550EA6F09000900F550E96E090054
:102E2000F550EA6E090009000900F550EB6F090042
:102E3000F550EC6F09000900F6CFEFF0F7CFF0F096
:102E4000F8CFF1F0E8C0F6FFE9C0F7FFEAC0F8FFFD
:102E50000001EB5302E1EC5307E00900F550EE6E80
:102E6000EB07F8E2EC07F9D7EFC0F6FFF0C0F7FF89
:102E7000F1C0F8FF0001ED07000EEE5BBFD71200B6
:102E800006500B02F3CF02F0F4CF03F00C02F35024
:102E90000326000EF420046E06500D02F3500426A3
:102EA000000EF420056E06500E02F3500526075062
:102EB0000B02F3500326F4500422000E05220750A3
:102EC0000C02F3500426F450052207500D02F35073
:102ED000052608500B02F3500426F4500522085032
:102EE0000C02F350052609500B02F3500526120080
:102EF00020200020202000472020002059200020F2
:102F00002052002020434F4E464947204D4F444514
:102F10002020200020534C4F57444F574E204D4FF8
:102F2000444520200020204D414E55414C204D4F1E
:102F30004445202020002020202020202020202068
:102F4000202020202020002020204155544F204DBB
:082F50004F4445202020200021
:082F5800056A046A036A026ABB
:102F6000200EE76ED8900636073608360936023648
:102F70000336043605360B50025C0C5003580D50D6
:102F800004580E50055809E30B50025E0C50035ACA
:102F90000D50045A0E50055A062AE72EE4D71200A7
:102FA000056A046A036A180EE76ED8900736083679
:102FB00009360336043605360C50035C0D500458B0
:102FC0000E50055807E30C50035E0D50045A0E5086
:0A2FD000055A072AE72EEAD712007F
:062FDA00056A046A100EF6
:102FE000E76ED89008360936043605360D50045C75
:102FF0000E50055805E30D50045E0E50055A082A80
:06300000E72EF0D71200DC
:0A300600800EF36E00EE00F00F0ED6
:1030100001D81200EA6002D0EE6AFCD7F350E960F2
:063020001200EE6AFCD76D
:0A3026001EEE00F02EEE00F0F86A36
:10303000019CF1EC16F003EC00F025EC16F0FBD748
:0230400012007C
:0E304200056A080EE76ED890093605360E5066
:0E305000055C02E3056E092AE72EF7D7120091
:02305E00000070
:103060000000000000000000000000000000000060
:0930700000000000000000000057
:073079000000000000000050
:103080000010101010101010101818181818181818
:10309000181C1C1C1C1C1C1C1C1E1E1E1E1E1E1E66
:1030A0001E1F1F1F1F1F1F1F1F000000000000000A
:1030B0000000000000000000000000000000000010
:1030C0000000000000000000000000000000000000
:0A30D00000000000000000000000F6
:0630DA00030301020408DB
:0430E00010204080FC
:0C30E400000000000000000000000000E0
:1030F00000000000000000000000000000000000D0
:1031000000000000000000000000000000000000BF
:1031100000000000000000000000000000000000AF
:1031200000000000102040800102040800000000A0
:10313000000000000000000000000000000000008F
:0C31400000000000000000000000000083
:020000040030CA
:0100010002FC
:0100020003FA
:010003001EDE
:010005008179
:010006008178
:010008000FE8
:01000900C036
:01000A000FE6
:01000B00E014
:01000C000FE4
:01000D0040B2
:00000001FF
